:020000040800F2
:100000009008002001010008472C00088B250008FB
:10001000A92B0008F10A000889340008000000003C
:10002000000000000000000000000000972D000804
:10003000BD0B000800000000492C0008592E0008E4
:100040001B0100081B0100081B0100081B01000820
:100050001B0100081B0100081B0100081B01000810
:100060001B0100081B0100081B0100081B01000800
:100070001B0100081B0100081B010008F50A00080D
:100080001B0100081B0100081B0100081B010008E0
:100090001B0100081B0100081B0100081B010008D0
:1000A0001B0100081B0100081B0100081B010008C0
:1000B000BD2E00081B010008C92E00081B01000806
:1000C0001B0100081B0100081B0100081B010008A0
:1000D0001B0100087D3400081B0100081B010008FB
:1000E0001B0100081B0100081B010008DFF80CD0F1
:1000F00000F050FC00480047313D00089008002007
:100100000648804706480047FEE7FEE7FEE7FEE7B1
:10011000FEE7FEE7FEE7FEE7FEE7FEE7BB2E000890
:10012000ED000008202A04DB203A21FA02F0002129
:10013000704721FA02F3D040C2F1200291400843F7
:100140001946704740EA01039B0703D009E008C93C
:10015000121F08C0042AFAD203E011F8013B00F88C
:10016000013B521EF9D27047D2B201E000F8012BD8
:10017000491EFBD270470022F6E710B513460A4627
:1001800004461946FFF7F0FF204610BDF0B480EAA0
:100190000102D40F4200B2EB410F02D202460846E0
:1001A00011464A0042D0C30DDDB2C1F3C752AD1AA9
:1001B000202D35DAC1F3160141F4000204B1524298
:1001C000C5F1200602FA06F12A411044B3EBD05FD4
:1001D00023D0C4B1012DA0EBC35009DCF0BC4FF01B
:1001E000004202EAC352DBB200F5000000F0C6BADA
:1001F000400000F1807000EBC350A0F1807040EA35
:10020000D170490009E0490841EAC071A0EBC35030
:1002100000F50000400800EBC350F0BC00F0A5BAA8
:100220006142012202EB4101001BF6E7F0BC70477E
:1002300081F00041AAE780F00040A7E780EA0102D0
:1002400010B502F00043400022D04A001FD0010E3A
:1002500001EB1261C0F35600C2F3560240F40000F5
:1002600042F40002A0FB022000047F39140400D0F5
:10027000401C50EA124001D44000491EC2B20C0694
:1002800004EBD010401C4008802A02D003E000207C
:1002900010BD20F00100002900DA0020184310BD35
:1002A00030B480EA010202F0004530F0004221F053
:1002B000004013D090B1C30DD40DC2F31601C0F3AA
:1002C0001600E41A41F4000140F400027D3491422A
:1002D00001D3641C00E04900002C02DA30BC00208D
:1002E00070474FF400000023914201D3891A034361
:1002F00040084FEA4101F7D151B1914202D14FF08C
:10030000004105E002D24FF0010101E06FF0010170
:1003100003EBC450284430BC00F027BA420005D09B
:10032000C0F3C7525242914201DC0020704700EBFB
:10033000C15070472DE9FE4F804681EA0300C00F8F
:100340000C46009021F0004123F00045B8EB02007C
:10035000A94105D24046214690461C460B4602461E
:1003600023F00040104347D0270DC7F30A00C3F322
:100370000A510290401A019040286BDAC3F313002F
:1003800040F4801B0098924620B10023D2EB030A70
:1003900063EB0B0B01985946C0F14002504600F048
:1003A000C3F906460D4650465946019A00F0CBF96E
:1003B00010EB08006141002487EA115284EAE773D8
:1003C0001A4340D0009A62B3019A012A4FEA0752B9
:1003D00015DC001B61EB02014FF0004202EA0752FC
:1003E000CDE90042001C41F5801132462B4600F059
:1003F00002FA03B0BDE8F08F40462146F9E7001B42
:1004000061EB0201001C41F5801300185B412018CC
:10041000A2F5001747EB030140EAD570B6196D410C
:1004200011E06D084FEA360645EAC0754FEA0752FB
:10043000001B61EB0201001C41F5801149084FEAE5
:1004400030000019514132462B4603B0BDE8F04F51
:1004500000F0C2B90098012240000023D0EB020254
:1004600063EBE073009821464FEAE074B8EB0000BC
:1004700061EB0401E9E783F000435BE781F00041B1
:1004800058E72DE9FE4F81EA030404F0004421F00F
:10049000004100944FF0000B23F0004350EA0104A8
:1004A0005ED052EA03045BD0C3F30A54C1F30A5589
:1004B0002C44A4F2F3340194A0FB0254C1F31301C1
:1004C00041F48011C3F3130343F4801301FB02448E
:1004D00000FB034E840A970A44EA815447EA835793
:1004E000A4FB076802958D0A05FB07854FEA932C4C
:1004F00004FB0C542705029D4FEA065847EA1637BD
:10050000B5EB08056EEB070C870E920E47EA8117D4
:1005100042EA8312A7FB0201B6EB0B0164EB000475
:100520002B0D43EA0C335E1844EB1C50DA4651465F
:10053000E7FB0201C5F313044FEA0B3343EA1453FC
:100540004FEA0432019C43EA0603A4F10C0402942E
:10055000009CCDE900B400F04EF903B0BDE8F08F87
:1005600000200146F9E72DE9F04D81EA030404F08B
:10057000004B21F0004514464FF0000A23F00041E3
:1005800050EA050220D054EA01021DD0C5F30A57F3
:100590000246C5F31303C1F31300C1F30A5640F436
:1005A000801543F48013A7EB0608101BD64608F20B
:1005B000FD3873EB050002D308F1010801E0921841
:1005C0005B41B8F1000F03DA00200146BDE8F08D71
:1005D00000204FF48011064684460EE0171B73EB93
:1005E000050705D3121B63EB050306434CEA010C18
:1005F00049084FEA300092185B4150EA0107EDD1FB
:1006000052EA030012D082EA040083EA050108439B
:1006100005D0101BAB4106D20122002306E00022C8
:100620004FF0004302E06FF0010253101AEB060096
:100630004CEB085110EB0A0041EB0B01BDE8F04D0B
:1006400000F0CAB870B521F0004303430CD0C1F3E9
:100650000A550024D5EB040564EB0403D617AD1A44
:10066000B34102DB0020014670BD201841EB02516E
:1006700070BDC10F80EAE0700844CA0796230021CC
:1006800000F07CB896230022114600F077B820F0E5
:100690000040C10DC0F3160040F400007F2901DACC
:1006A00000207047962903DCC1F19601C8407047CD
:1006B00096398840704700F0004230F000400AD080
:1006C000C10D01F56071C0F3160042EA0151C20884
:1006D00040071143704700200146704701F0004376
:1006E00030B421F0004150EA010206D00A0DA2F513
:1006F0006072C1F31301002A02DC30BC0020704795
:10070000440F44EAC104C100E01830BC00EBC25001
:1007100000F02BB8002801DBC0F10040002901DB0C
:10072000C1F1004188427047202A04DB203A00FAD8
:1007300002F1002070479140C2F1200320FA03F338
:10074000194390407047202A06DBCB17203A41FA24
:1007500002F043EAE07306E041FA02F3D040C2F14E
:10076000200291400843194670470029A8BF7047EE
:10077000401C490008BF20F00100704710B4B0FAD7
:1007800080FC00FA0CF050EA010404BF10BC704772
:1007900049B1CCF1200421FA04F411FA0CF118BF8C
:1007A000012121430843A3EB0C01CB1D4FEA00615B
:1007B0004FEA102042BF002010BC704700EBC3502E
:1007C00010440029A4BF10BC7047401C490008BF5A
:1007D00020F0010010BC704710B5141E73F1000426
:1007E00008DA401C41F1000192185B411A4301D123
:1007F00020F0010010BD2DE9F04D92469B4611B14D
:10080000B1FA81F202E0B0FA80F220329046FFF7AE
:100810008BFF04460F4640EA0A0041EA0B015346AB
:100820005A46084313D0114653EA010019D0C8F1C3
:1008300040025046FFF776FC05460E4650465946A4
:100840004246FFF771FF084305D0012004E020462F
:100850003946BDE8F08D0020054346EAE0762C439A
:1008600037430A986305E40AA0EB08000022FD0A5A
:1008700044EA47540A3002D500200146E9E7010561
:1008800010196941DDE9084500196941BDE8F04DDD
:10089000A2E72DE9F04D00231A461B1A8A4103DB1B
:1008A00000200146BDE8F08DC1F30A52C1F31301E7
:1008B00041F480154FF0000BD10702D100186D41B3
:1008C000521E0027044640F2FF11384601EB620A2F
:1008D0003E468046024600204FF48011FFF722FC7E
:1008E000C2197141BB1846EB0100B4EB030C75EB68
:1008F000000C04D3E41A65EB000517460E462419D4
:1009000008F101006D4180463428E3DDF91946EB1A
:100910000600091BA84103D24FF0FF32134601E045
:10092000002213461BEB070046EB0A51BDE8F04DD1
:10093000FFF752BF70B5044601F0004500200543A3
:1009400004D14FF00045644265EB010103F000451E
:10095000284305D118464FF00043524263EB000391
:10096000101B73EB010002D24FF0004009E082EA55
:10097000040283EA01034FF000501A4301D14FF003
:10098000C0404FEA2062EFF3008162F31F6181F300
:10099000008870BD064C074D06E0E06840F001039A
:1009A00094E8070098471034AC42F6D3FFF7A2FB57
:1009B00038460008584600080EB5C10F80EAE070BE
:1009C0000844CA07002140F233438DE80E000A466E
:1009D0000B46FFF710FF03B000BD0EB540F23341E8
:1009E00002910021CDE900110A460B46FFF703FFF3
:1009F00003B000BD70B5C1F30A5201F000450024F8
:100A0000C1F3130140F2FF3341F480119A4201DA3D
:100A1000002070BD40F233439A42A2F2334203DC1D
:100A20005242FFF77FFB00E090402C43F1D0404260
:100A300070BD00003EB5174CFF2002210094CDE9A7
:100A4000011001230C226C21134800F013FC2178C3
:100A5000607801F00F0140EA0120FFF713FE6060AB
:100A600010F1FF4F03D30D49FFF790FB60600121A8
:100A7000FFF754FCFFF71FFE094A0A4BFFF701FD81
:100A80000022094BFFF76FFD03B0BDE83040FFF7D0
:100A900025BE00000C0000200C02002000F07F4565
:100AA0006E861BF0F921094000FEAF401FB5002003
:100AB0008DF80C000121FF2203A88DE807000B46EA
:100AC0000B226C21094800F0D5FB9DF80C00810633
:100AD00002D4FF2004B010BD010701D50220F9E7C0
:100AE000C00601D50120F5E70020F3E70C02002045
:100AF000FEE70000014800F0D3B8000080030020AA
:100B000030B590F840500124AC40C56B6C6004686F
:100B100063604368102B036803D099600068C2606B
:100B200030BD9A600068C16030BD000070B51048EB
:100B30004568104CE668206808B900F01DF8206987
:100B4000A84213D0854201D9281A01E0C0432844A5
:100B500061690844C4E904500146B0FBF6F028B1CD
:100B600062680244626000FB16106061606870BDDC
:100B7000001000E0140000200C4810B5016841F09E
:100B8000807101600A4800214160016841F0010163
:100B9000016000F013FE074988608868064AB0FBD0
:100BA000F2F0C86001200860002010BDFCED00E0FC
:100BB000001000E01400002040420F00704772B6A1
:100BC000FEE710B590F821100022022905D004217B
:100BD000816380F82020012010BD01680B6823F09C
:100BE0000E030B6001680B6823F001030B6090F8A3
:100BF0004030C46B012101FA03F3636080F82110D7
:100C000080F82020104610BD10B590F82110002467
:100C1000022903D00421816301243DE001680A68B0
:100C200022F00E020A6001680A6822F001020A60DE
:100C30001A4A0168914201D1012121E0174A143278
:100C4000914201D110211BE0144A2832914201D176
:100C5000891515E0114A3C32914201D189140FE007
:100C60000E4A5032914202D14FF4803108E00B4AD3
:100C70006432914202D14FF4801101E04FF0807153
:100C8000064A083A5160012180F82110002180F8BD
:100C90002010416B01B18847204610BD080002407A
:100CA0002DE9F05FC16B0C6801680B68D0F840C09B
:100CB000042202FA0CF2494DDFF824A1494E4A4FB2
:100CC000DFF828B1DFF828E122422CD05A072AD5D4
:100CD0000A68920603D40A6822F004020A600168D6
:100CE000A94201D1042219E0514501D1402215E069
:100CF000B14202D14FF4806210E0B94202D14FF408
:100D000080420BE0594502D14FF4802206E0714544
:100D100002D14FF4800201E04FF080622F49083980
:100D20004A60C16A3BE04FF0020808FA0CF818EA82
:100D3000040F4FF000094FF0010235D05FEA8378CD
:100D400032D50B689B0605D40B6823F00A030B60B1
:100D500080F821200168A94201D1022219E0514501
:100D600001D1202215E0B14202D14FF4007210E00F
:100D7000B94202D14FF400520BE0594502D14FF471
:100D8000003206E0714502D14FF4001201E04FF04D
:100D90000072124908394A6080F82090816A00295F
:100DA0001AD0BDE8F05F0847082505FA0CF5254282
:100DB00012D01B0710D50B6823F00E030B6090F8C0
:100DC0004010C36B02FA01F15960826380F8212060
:100DD00080F82090016BE2E7BDE8F09F0800024038
:100DE0001C00024030000240440002405800024013
:100DF0006C00024030B528B308C8134914221944C6
:100E0000B1FBF2F18900C16310498163022141778E
:100E10001A6843F6F0718A43D0E900142143D0E9FF
:100E200002452C43214304692143446921438469D9
:100E30002143114319600021416301224277017768
:100E4000084630BD012030BDF8FFFDBF0000024064
:100E500070B5044690F82000002501280CD0012030
:100E600084F8200094F821600020012E06D084F838
:100E700020000225284670BD022070BD022684F89D
:100E80002160A0632068066826F0010606602046FF
:100E9000FFF736FEE06A00282068016802D041F0C2
:100EA0000E0106E021F0040101602068016841F0B4
:100EB0000A0101602068016841F001010160D9E781
:100EC00070B5044600F00CF90546601C02D00448D9
:100ED0000078044400F004F9401BA042FAD370BD2E
:100EE000380000202DE9F84FDFF8B8910024A9F16F
:100EF000040B23460F2709F1040AABF1040EC9E0E5
:100F00000125A5402A40AA427DD1674ED1F804C0F0
:100F1000ACEB0608B44532D014DCBCF1030F3AD078
:100F200009DCBCF1000F2AD0BCF1010F1CD0BCF1D0
:100F3000020F31D11DE0BCF1110F17D0BCF1120F1F
:100F40002AD119E0B8F5881F19D006DCB8F5803F22
:100F500015D0B8F5801F1FD111E0B8F5001F0ED0D5
:100F6000B8F5041F18D10AE0CB6815E0CB681B1D4B
:100F700012E0CB6808330FE0CB680C330CE08B68D1
:100F80002BB1012B4FF0080303D0456104E004238B
:100F900002E0056100E00023FF2A01D8064601E0D7
:100FA00000F104064FEA840501D9A5F12005D6F821
:100FB000008007FA05FC28EA0C0803FA05F548EA60
:100FC0000508C6F800804D68ED0062D5374DAE6962
:100FD00046F00106AE61AD6924F0030605F0010597
:100FE0000095334D06EB050CDCF80850A607360FCC
:100FF00007FA06F825EA0805DFF8B880404503D16E
:101000004FF0000817E044E0DFF8AC80404502D123
:101010004FF001080FE0DFF8A480404502D14FF007
:10102000020808E0DFF89880404502D14FF003083D
:1010300001E04FF0040808FA06F848EA0508CCF881
:1010400008804D68D9F80060ED024D4601D5164381
:1010500000E096432E604D68DAF80060AD02554618
:1010600001D5164300E096432E604D68DBF8006022
:10107000AD035D4601D5164300E096432E604D68F2
:10108000DEF80060ED03754601D5164300E0964397
:101090002E60641C0D682A46E5407FF431AFBDE840
:1010A000F88F0000080401400000111000100240F9
:1010B0000000014000080140000C01400010014008
:1010C00000140140C26821EA02030A4043EA0241D7
:1010D000016170470AB1016170470904FBE7000034
:1010E00001488068704700003800002070B5040097
:1010F00025D094F83D00002520B984F83C502046C6
:1011000000F0E0F9242084F83D002068016821F017
:10111000010101602068016841F40041016020681C
:10112000016821F40041016000F028FB4D4A61682C
:10113000914201D84C4900E04C49884201D201203B
:1011400070BD4B492368B0FBF1F15E6826F03F06A5
:101150000E435E606368934206D94FF49673594319
:101160004FF47A73B1FBF3F12368491C1E6A26F031
:101170003F06314319626168914210D84900401E10
:10118000B0FBF1F2521CC2F30B02042A01D204207C
:1011900022E0B0FBF1F0401CC0F30B001CE0A268A1
:1011A000F2B301EBC10303EB0116431EB3FBF6F3ED
:1011B0005B1C43F480431B0549D092B301EBC10291
:1011C00002EB0111401EB0FBF1F0401CC0F30B001C
:1011D00040F4804040F400402168CA694CF6FF7337
:1011E0009A431043C861D4E907100143206802689C
:1011F00022F0C00211430160D4E9030101432068D9
:10120000826848F2FF339A4311438160D4E90501B3
:1012100008432168CA6822F0FF021043C86001E059
:101220000EE016E02068016841F0010101602564CC
:10123000202084F83D00256384F83E50002070BDD6
:1012400001EB4106431EB3FBF6F35B1CB3E7012041
:10125000C2E701EB4101401EB0FBF1F0401CC0F3BE
:101260000B00B7E7A086010080841E0000093D0046
:1012700040420F002DE9FF4F83B00025DDE91079D2
:101280009A4693460446DDF848800095FFF728FF0C
:10129000064694F83D0020287CD119230122854977
:1012A0002046009601F008FA0028F5D194F83C0099
:1012B00001286FD0012084F83C0020680168C9072C
:1012C00003D1016841F0010101602068016821F447
:1012D00000610160222084F83D00402084F83E0037
:1012E00025646762A4F82A90608D20857248E062C8
:1012F000CDE9008653465A462046049901F05EF92E
:1013000000287DD1208DDFF8B491202768B1012815
:1013100014D00228206801681ED041F48061016069
:101320002068416980690090B6E020684169816960
:101330000091016841F400710160ADE0206801682E
:1013400021F48061016072B6206841698169009171
:10135000016841F400710AE041F40061016072B675
:101360002068416981690091016821F48061016010
:1013700062B691E0032868D801280CD002284346C1
:101380004FF000024946204600960FD001F094F934
:10139000B0BB10E08BE032464146204601F032FA05
:1013A00070BB20680069616A08706CE001F084F924
:1013B00030BB72B634E02068016821F480610160BE
:1013C00072B620680069616A0870606A401C6062D9
:1013D000208D401E2085608D401E6085384846F275
:1013E000A8110068B0FBF1F0C0EBC00000EB80007A
:1013F0000090401E009008D020684069C04300E083
:1014000029E040070CD50098F3E744F8305F677394
:10141000A573206940F02000206162B625731AE0B0
:101420002068016841F40071016020680069616A08
:101430000870606A401C6062218D491E2185618DA3
:10144000491E618562B621681BE03246414620464E
:1014500001F0D8F918B1012007B0BDE8F08F20687D
:101460000069616A0870606A401C6062218D491ED3
:101470002185618D491E618521684A69D2435207E1
:101480000AD409690170606A401C6062208D401EA8
:101490002085608D401E6085208D00287FF46AAF16
:1014A00084F83D7084F83E5084F83C50D4E7022024
:1014B000D2E70000020010000000FFFF040001005E
:1014C0004400002010B586B00021009101910291E6
:1014D000039100680F4988421AD10F4CA06940F06F
:1014E0000800A061A069694600F008000490C020CF
:1014F000009012200190032003900848FFF7F2FCAF
:10150000E06940F40010E061E06900F4001004902C
:1015100006B010BD0054004000100240000C014015
:1015200002488168027811448160704738000020C9
:10153000074810B5016841F010010160032000F078
:1015400075F80F2000F006F800F024F8002010BD18
:101550000020024070B50D4D04464FF47A71287892
:10156000B1FBF0F00A490968B1FBF0F000F0DCFAD9
:1015700048B9102C07D200222146501E00F036F840
:1015800000206C6070BD012070BD0000380000209C
:10159000440000200C4808B5816941F001018161D7
:1015A000816901F001010091C16941F08051C1617F
:1015B000C06900F0805000900448416821F0E0616B
:1015C00041F00071416008BD001002400000014080
:1015D000002809DB00F01F02012191404009800032
:1015E00000F1E020C0F8001170470000F0B40E4B8D
:1015F0001B680C46C3F30223C3F10705042D00D971
:101600000425191D072901D2002300E0DB1E012655
:1016100006FA05F1491E214099409E40761E16406B
:101620003143F0BC01F045BF0CED00E0064900F08D
:10163000070208684FF6FF03184040EA0220034AF9
:1016400010430860704700000CED00E00000FA0550
:101650002DE9F0470F46050061D0434E306800F099
:101660000700B84209D2306820F0070038433060E4
:10167000306800F00700B84251D128683B4C810720
:1016800012D5400703D5606840F4E06060602878B8
:10169000000703D5606840F4605060606068A96826
:1016A00020F0F000084360602878C00728D0686800
:1016B000012810D02168022810D0890700292EDACD
:1016C000616821F0030101436160FFF709FD804675
:1016D00041F288390DE021688903EFE78901EDE7E0
:1016E000FFF7FEFCA0EB0801494502D90320BDE845
:1016F000F0876068696800F00C00B0EB810FEFD1F3
:10170000306800F00700B8420BD9306820F00700BD
:1017100038433060306800F00700B84201D0012043
:10172000E5E72878400705D56068E96820F4E060BF
:10173000084360602878000706D56068296920F4AE
:10174000605040EAC100606000F038F86168084A03
:10175000C1F30311515CC84006490860064800689F
:10176000FFF7F8FE0020C2E7002002400010024010
:10177000FE440008440000203C00002004480549C5
:1017800000684968044AC1F30221515CC8407047AF
:1017900044000020001002400E450008044805499E
:1017A00000684968044AC1F3C221515CC8407047CF
:1017B00044000020001002400E4500080E4A516807
:1017C0000E4801F00C03042B11D0082B0FD10C484C
:1017D000C1F38343C903C05C0AD55168084AC1F309
:1017E0004041921E515C054A5043B0FBF1F07047F6
:1017F00004494843704700000010024000127A007C
:10180000EE44000800093D002DE9F84F040070D0B7
:101810002078C04DC00749D06868C0F38100012816
:1018200007D06868C0F38100022809D16868C00346
:1018300006D52868800339D560680028E7D035E0F0
:101840006068B0F5803F0BD010B1B0F5A02F11D07B
:10185000286820F480302860286820F4802002E086
:10186000286840F480302860606890B1FFF738FC49
:1018700006460AE0286840F480202860F0E700BFB0
:10188000FFF72EFC801B642873D828688003F7D5E7
:101890000CE0FFF725FC064605E000BFFFF720FC43
:1018A000801B6428F0D828688003F7D420789A4EEB
:1018B00080074FF001094FF0000839D5686810F033
:1018C0000C0F07D06868C0F38100022809D168684E
:1018D000C00306D42868800714D52069012808D1E0
:1018E00010E02069B0B1C6F80090FFF7F9FB074699
:1018F00005E00AE1FFF7F4FBC01B0228C4D8286802
:101900008007F7D52868616920F0F80040EAC10037
:1019100028600DE0C6F80080FFF7E2FB074604E010
:10192000FFF7DEFBC01B022823D828688007F7D406
:10193000207800072CD57948A169D9B1C0F800906A
:10194000FFF7CEFB074604E0FFF7CAFBC01B0228E7
:101950000FD8686A8007F7D571484FF4FA510068CC
:10196000B0FBF1F0009000BF0098411E0091FAD248
:101970000EE080E0C0F80080FFF7B2FB074604E00D
:10198000FFF7AEFBC01B022875D8686A8007F7D442
:101990002078400760D5E8690027C00008D4E869CE
:1019A00040F08050E861E869012700F08050009025
:1019B0005C480168C90513D40168834641F480710D
:1019C0000160FFF78DFB824606E000BFFFF788FB52
:1019D000A0EB0A0064284ED8DBF80000C005F5D55E
:1019E000E06801280AD008B1052813D0286A20F041
:1019F00001002862286A20F0040002E0286A40F012
:101A000001002862E06841F2883B98B1FFF768FB6B
:101A100082460BE0286A40F004002862EEE700BF2F
:101A2000FFF75EFBA0EB0A0159455AD8286A8007E8
:101A3000F6D50CE0FFF754FB824605E0FFF750FBBC
:101A4000A0EB0A0159454CD8286A8007F6D41FB18B
:101A5000E86920F08050E861E06988B36968C1F303
:101A60008101022944D00228C6F8608004D0FFF723
:101A700037FB044638E034E0FFF732FB074604E06A
:101A8000FFF72EFBC01B02282BD828688001F7D453
:101A9000206AB0F5803F05D16868A16820F4003065
:101AA00008436860D4E908010843696821F47411A7
:101AB00008436860C6F86090FFF712FB044606E032
:101AC00025E000BFFFF70CFB001B022809D828689F
:101AD0008001F7D51BE000BFFFF702FB001B0228C7
:101AE00002D90320BDE8F88F28688001F4D40EE005
:101AF0000128F7D06868226A00F48031914204D14D
:101B0000616A00F47010884201D00120EAE70020E9
:101B1000E8E7000000100240000042428004424218
:101B2000440000200070004010B5401EB0F1807FDE
:101B300001D3012010BD4FF0E02460610F21601738
:101B400001F0B7FC0020A06107202061002010BD3B
:101B50007047704770B590F83C20012A26D00124C8
:101B600080F83C40022280F83D2003685A689D6856
:101B700022F070060A6832435A600D4B02689A429E
:101B800008D0B2F1804F05D00A4B9A4202D00A4BDE
:101B90009A4204D1496825F080031943916080F886
:101BA0003D40002180F83C10084670BD022070BD09
:101BB000002C0140000400400008004010B5040063
:101BC00003D094F83D0010B107E0012010BD0020C3
:101BD00084F83C00204600F01FF8022084F83D0005
:101BE000211D206801F076F9012084F8460084F870
:101BF0003E0084F83F0084F8400084F8410084F8F7
:101C0000420084F8430084F8440084F8450084F8D6
:101C10003D00002010BD000008B501681948B1F171
:101C2000804F0BD0184A914217D1C16941F002018F
:101C3000C161C06900F00200009008BDC16941F0B7
:101C40000101C161C069002200F001000090022181
:101C50001C20FFF7CBFC1C2010E00C4A9142ECD179
:101C6000C16941F00401C161C069002200F00400B3
:101C7000009001211E20FFF7B9FC1E20BDE808409E
:101C8000FFF7A6BC0010024000040040000800401E
:101C900090F83D10012901D001207047022180F801
:101CA0003D100168CA6842F00102CA6000680B4931
:101CB000884208D0B0F1804F05D00949884202D04F
:101CC0000849884204D1816801F00701062903D040
:101CD000016841F00101016000207047002C0140C3
:101CE000000400400008004070B5044690F83C0035
:101CF0000025012817D0012684F83C60022084F8D2
:101D00003D002068826822F0770222F47F428260E0
:101D10000868502838D00DDC20284FD005DC90B35F
:101D2000102811D14AE0022070BD302846D040284A
:101D30000AD13BE060282FD070280DD0B0F5805F2D
:101D400003D0B0F5005F12D0012584F83D6000207B
:101D500084F83C00284670BDCB68D1E90121206899
:101D600001F0FBF82068816841F0770109E0CB6859
:101D7000D1E90121206801F0F0F82068816841F480
:101D800080418160E1E719E0CA684968206801F094
:101D900099F95021206806E0CA684968206801F076
:101DA000A2F96021206801F0E2F8CEE7CA6849682C
:101DB000206801F087F940212068F4E72268014695
:101DC0001046F0E7704770B50446006801694FF0AF
:101DD0000005C943890715D4C168C943890711D4CF
:101DE000E91E016101202077206880698007204674
:101DF00002D0FFF7E7FF04E000F0D0F8204600F043
:101E000062F9257720680169C943490717D4C16879
:101E1000C943490713D46FF0040101610220207700
:101E20002068806910F4407F204602D0FFF7CAFF87
:101E300004E000F0B3F8204600F045F9257720686B
:101E40000169C943090716D4C168C943090712D4F7
:101E50006FF008010161042020772068C0698007C5
:101E6000204602D0FFF7AEFF04E000F097F82046CE
:101E700000F029F9257720680169C943C90617D4FC
:101E8000C168C943C90613D46FF01001016108206D
:101E900020772068C06910F4407F204602D0FFF709
:101EA00091FF04E000F07AF8204600F00CF9257765
:101EB00020680169C943C90708D1C168C943C90776
:101EC00004D1891E0161204600F04CF920680169A7
:101ED000C943090609D4C168C943090605D46FF08E
:101EE000800101612046FFF733FE20680169C94384
:101EF000490609D4C168C943490605D46FF04001B9
:101F00000161204600F040F920680169C943890653
:101F10000BD4C168C943890607D46FF02001016161
:101F20002046BDE87040FFF714BE70BD30B585B0E7
:101F300000210091019102910391006813498842A8
:101F400021D11348816941F004018161816901F067
:101F500004010491816941F00801816180690225D1
:101F600000F0080004908020CDE9000503246946B4
:101F700003940848FEF7B6FFCDE9004569460648D8
:101F80000394FEF7AFFF05B030BD00000004004031
:101F90000010024000080140000C0140704770B57D
:101FA000044690F83C0000260D4601280FD0012081
:101FB00084F83C006AB1042A1DD0082A2FD00C2ACC
:101FC0003FD00126002084F83C00304670BD02203E
:101FD00070BD206800F0D4FF2068816941F00801DD
:101FE00081612068816921F0040181612068816933
:101FF0002A69114311E0206800F0EAFF2068816936
:1020000041F4006181612068816921F4806181610E
:10201000206881692A6941EA02218161D2E720684A
:1020200001F002F82068C16941F00801C16120682F
:10203000C16921F00401C1612068C1692A691143A5
:1020400011E0206801F01CF82068C16941F40061CA
:10205000C1612068C16921F48061C1612068C169E2
:102060002A6941EA0221C161ACE710B5040003D03E
:1020700094F83D0010B107E0012010BD002084F865
:102080003C00204600F01EF8022084F83D00211D8F
:10209000206800F01FFF012084F8460084F83E000D
:1020A00084F83F0084F8400084F8410084F842003E
:1020B00084F8430084F8440084F8450084F83D0027
:1020C000002010BD7047704710B50446022249B188
:1020D00004290ED0082913D094F84100012816D005
:1020E000012010BD94F83E000128F9D184F83E206B
:1020F0000FE094F83F000128F2D184F83F2008E077
:1021000094F840000128EBD184F8402001E084F8E5
:1021100041200122206800F013FF0F492068884207
:1021200003D1426C42F4004242642068884208D0E5
:10213000B0F1804F05D00949884202D00849884251
:1021400004D1816801F00701062903D0016841F03C
:1021500001010160002010BD002C0140000400407E
:10216000000800400068064B0121064A984201D150
:1021700011707047B0F1804FFBD151707047000073
:102180000008004004000020704738B5044690F86D
:102190004200202801D0022038BD61B15AB101208F
:1021A000206300206063204601F020F90028F3D16D
:1021B000216B012901D0012038BD21680A684968D6
:1021C000009121680C3151E8002F42F0100241E8E3
:1021D0000023002BF5D138BD0068064A904207D194
:1021E000054801220270C18051030448FEF76ABF0E
:1021F00070470000003801402E0000200010014010
:1022000070470000F8B5016804460868CA684B6961
:1022100010F00F0F4FF0000559D003F0010602F443
:102220009077374365D0C10705D0D10503D5616CE0
:1022300041F001016164410705D5D90703D0616C04
:1022400041F002016164810705D5D90703D0616CB3
:1022500041F004016164010707D502F02001314318
:1022600003D0616C41F008016164616C00293AD0CF
:10227000800604D5900602D5204600F0FAFF2068BB
:102280004069616CC0F38010090700D460B3204638
:1022900000F0BAFF20684069400621D5206814305C
:1022A00050E8001F21F0400140E80012002AF5D15B
:1022B000E06BA8B16D494163E06BFEF7A5FC002817
:1022C00011D0E06B416B01B0BDE8F04008478306D8
:1022D0000FD593060DD52046BDE8F84000F0C9BFE4
:1022E0002046FFF78DFFF8BD2046FFF789FF6564A4
:1022F000F8BD266B2023012E7CD1C6067AD5D606E2
:1023000078D508684868009048694FF00206400692
:1023100040D5E16B086840680004000CE8D0A28D4D
:102320008242E5D9E085886920282DD020680C30CC
:1023300050E8001F21F4807140E80012002AF5D116
:102340002068143050E8001F21F0010140E800121D
:10235000002AF5D12068143050E8001F21F0400118
:1023600040E80012002AF5D184F842302563206845
:102370000C3050E8001F21F0100140E80012002A44
:10238000F5D1E06BFEF71DFC6663A08DE18D401A70
:1023900081B22AE0A08DE18D401A81B2E08D002843
:1023A000A6D00029A4D022680C3252E8000F20F4F5
:1023B000907042E80007002FF5D12068143050E8F3
:1023C000002F22F0010240E80027002FF5D184F809
:1023D0004230256320680C3050E8002F22F01002B4
:1023E00040E80023002BF5D166632046FFF7F4FE9A
:1023F000F8BDFFE705062BD5150629D594F8410051
:102400002128F5D1A068B0F5805F01D12069B0B175
:10241000206A411C2162216800784860E08C401EDF
:102420000004000CE084E3D12068C16821F0800141
:10243000C1602068C16841F04001C160D8E7206AEE
:102440000088C0F308004860206A801C2062E5E72D
:102450004006CDD55006CBD5CA68204622F04002B2
:10246000CA6084F8413000F08FF8C1E70B310008F2
:1024700070B5040004D094F84100002510B106E0C6
:10248000012070BD84F84050204600F023F824203D
:1024900084F841002068C16821F40051C1602046E1
:1024A00000F048FF2068016921F490410161206833
:1024B000416921F02A0141612068C16841F400515D
:1024C000C1606564202084F8410084F8420065639F
:1024D000002070BD70B586B00025064600950195B8
:1024E000029503950068224988423ED121498869B6
:1024F00040F480408861886900F4804004908869D5
:1025000040F00400886188691B4C00F004000490CE
:102510004815009002200190032003906946204650
:10252000FEF7E0FC2015CDE900056946204602953E
:10253000FEF7D8FC124C1148C4E900058020C4E91C
:10254000025025616561A5612046E561FEF752FCF8
:1025500008B1FEF734FBF4630022114625206662C1
:10256000FFF744F82520FFF733F806B070BD0000F0
:1025700000380140001002400008014058000240AD
:1025800080030020704770477047FEE701684A6982
:10259000D24352050FD46FF480624A61002140F8A3
:1025A000301F202242738173026942F004020261EB
:1025B0000173012070470020704700002DE9F84F9B
:1025C0000446006889460B9D01689846174641F409
:1025D000806101602068016841F4807101600095AC
:1025E0004FF0011B0022594620460A9B00F064F878
:1025F0004FF4007A40B120680068C00501D5C4F8E6
:1026000040A00320BDE8F88F216809F0FE000861B2
:102610002B46284920460A9A00F096F8F0BB20681D
:102620004169806900902A4620460A9900F022F903
:1026300040B1206C04283AD12068016841F400714F
:10264000016034E0FEB2B8F1010F09D02168380A08
:1026500008612A4620460A9900F00CF90028E8D1C2
:10266000206806612A4620460A9900F003F90028EE
:10267000DFD12068016841F480710160009500227B
:10268000594620460A9B00F017F80028B3D121686C
:1026900009F0FF0040F00100086100E007E02B4670
:1026A000044920460A9A00F04FF80028AAD00120D9
:1026B000A8E70000020001002DE9F0479846174600
:1026C0000D460446C1F30746DDF820902AE000BF1E
:1026D000B8F1FF3F26D0FEF703FDA0EB090141450D
:1026E00002D8B8F1000F1DD12068012E16D08069E4
:1026F00025EA00000004000C12D00020B84211D1DD
:10270000002044F8300F20216173A073216941F04B
:102710002001216120730120BDE8F0874069E7E7CF
:102720000120EBE72068012E0AD0806925EA00002D
:102730000004000C06D00020B842C9D00020EBE70E
:102740004069F3E70120F7E72DE9F0479846164680
:102750000D4604464FF000094FF0200AC1F3074729
:1027600023E020684069C043400515D42068016813
:1027700041F40071016021686FF480604861C4F821
:10278000309084F83DA084F83E90216C41F0040123
:10279000216484F83C9021E0701C06D0FEF7A0FC78
:1027A000A0EB0800B04203D816B1012F1FD021E0E2
:1027B0002068012F15D0806925EA00000004000C74
:1027C00018D000BF44F8309F84F80DA084F80E9014
:1027D000216941F02001216184F80C900120BDE8BD
:1027E000F087406925EA00000004000CEAD1206867
:1027F000406901E02068806925EA00000004000CBF
:10280000AFD1ECE72DE9F041002590460E46044695
:10281000202728E04069C043C0060CD454F8301B80
:102820006FF01000486144F810596777A577206A67
:102830002062257714E0FEF753FCA0EB0800B042BD
:1028400000D886B920684069C04340060BD544F8DB
:10285000305F6773A573206940F020002061257305
:102860000120BDE8F08120684169C9434906D1D4FF
:102870000020F6E770B516460D4604461EE02046D9
:10288000FFF784FE08B1012070BD681C16D0FEF76A
:1028900027FC801BA84200D885B920684069C04346
:1028A00000060BD5002044F8300F20216173A0737F
:1028B000216941F0200121612073E4E7206840692B
:1028C000C0430006DBD4002070BD0000094808B5F5
:1028D000416941F0010141614069002200F00100BD
:1028E000009011460F20FEF781FEBDE808400F2042
:1028F000FEF76EBE001002402DE9F04385B00024C3
:1029000025480094019402940394816941F01001D8
:102910008161816901F010010491816941F0200118
:102920008161816901F020010491816941F0040114
:102930008161816901F004010491816941F008011C
:1029400081618069DFF8548000F008004FF4005581
:102950000490002229464046FEF7BCFBDFF8409079
:1029600040F60407012239464846FEF7B3FB0095BE
:10297000022601250396CDE9015469464046FEF73B
:10298000B1FA00970396CDE9015469464846FEF72F
:10299000A9FA05B0BDE8F083001002400010014024
:1029A000000C01400D4810B50B4901600C49416015
:1029B00000214FF480428160C0E9031241618161CE
:1029C000C1610162FEF792FB002803D0BDE8104010
:1029D000FEF7F5B810BD0000005400400C020020C6
:1029E000801A060010B586B00024174800940194A0
:1029F0000294039404944FF080410594016041F6E1
:102A00001F41C0E9011440F2E731C0E903148021FD
:102A10008161FFF7D3F808B1FEF7D1F84FF4805089
:102A2000009069460848FFF75FF908B1FEF7C7F85C
:102A3000049404A904480594FFF78CF8002801D0F9
:102A4000FEF7BDF806B010BD6002002030B58DB0B5
:102A500000240794089409940A940B941C21684656
:102A60000C94FDF788FB274825494FF4E165C0E940
:102A7000001420210461C0E9021580218161FFF763
:102A80009DF808B1FEF79BF84FF48050079007A916
:102A90001C48FFF729F908B1FEF791F81948FFF72C
:102AA000E4FA08B1FEF78BF80B940BA915480C94C7
:102AB000FFF750F808B1FEF782F860200090CDE9EA
:102AC0000154042269460F480494FFF768FA08B1DC
:102AD000FEF775F8082269460A48FFF760FA08B160
:102AE000FEF76DF80C2269460648FFF758FA08B160
:102AF000FEF765F80348FFF719FA0DB030BD000086
:102B000000040040A802002010B586B00024174839
:102B10000094019402940394049413490594016071
:102B20004721C0E901144FF4FA71C0E90314802170
:102B30008161FFF743F808B1FEF741F84FF4805088
:102B4000009069460948FFF7CFF808B1FEF737F85B
:102B5000049404A905480594FEF7FCFF002801D061
:102B6000FEF72DF806B010BD00080040F00200206E
:102B70000C4810B50A4901604FF47A3141600021D8
:102B800081600C22C160C0E904128161C161FFF75C
:102B90006FFC002803D0BDE81040FEF710B810BD50
:102BA0000038014038030020FEE73422A830FDF74A
:102BB000C9BA28222C30FDF7C5BA70B504460D46B7
:102BC0003D225430FDF7BEFA15F83D0F04F8910F81
:102BD00068786070A878A070E878E0702879207133
:102BE00068796071A879A071E879E071287A20721B
:102BF000687A60720B350B3495E8070084E80700AB
:102C000070BD016170470176704719B14FF0FF3117
:102C1000416170470121FBE7A83080E80E00704752
:102C2000027E012A05D0022A06D0032A00D1C16102
:102C30007047C0F8B4107047C0F8E8107047DC3037
:102C400080E80E007047FEE7704700002DE9F0476E
:102C500088460446FDF76AFF0646206B3C4F002875
:102C600053D0301AFDF70EFD3A49FDF7E7FA054655
:102C7000A0F50000B0F17A5F00D93D4626634146D9
:102C8000E068FDF7D5FA804641462069FDF77EFAF7
:102C90002061814640466169FDF7CAFA2946FDF781
:102CA000FFFA0646E06AB0F5000F01DA2A48E06252
:102CB0002946FDF76BFA01462846FDF7F1FA07466B
:102CC00001464FF07E50FDF7B3FA216AFDF7B6FAE0
:102CD000054631463846FDF7B1FA2946FDF756FA62
:102CE000206260621D4AC4F81480A0621178054613
:102CF00003290CD90146FDF749FA2946FDF746FAA2
:102D00001749FDF7CDFA206203E0164DB6E7491CDE
:102D10001170E069FDF7ADFC0746A168206AFDF778
:102D20008DFA064648466168FDF788FA0546404632
:102D30002168FDF783FA2946FDF728FA3146FDF7A9
:102D400025FA3946FDF77AFAA061BDE8F087000060
:102D50006F12833ABD3786353661023C2C00002065
:102D6000000040406F12033B10B50446007E01286E
:102D700008D002280ED1616C04F1DC00BDE81040DF
:102D8000FFF764BFE168606BFDF752FA014604F19A
:102D9000A800F3E710BD704770B50446FDF74AFE82
:102DA000054620601448017879B128466168FDF72E
:102DB0003FFA124A20F0004191420DDD2169B0F541
:102DC000000F06DB4FF0FF3004E001216560017069
:102DD00070BD01200844206165602069FDF749FC51
:102DE0000121FDF79BFA0649FDF728FA2946FDF770
:102DF000CDF9A06070BD0000000000207CD9A0408B
:102E0000DB0F49402DE9F0410446FFF7C5FFFDF710
:102E10008DFEFDF72EFC20620646616AFDF708FA7A
:102E20000A49FDF70BFA0546B0F5000F00DA084D28
:102E3000D4E902713846FDF7FBF92946FDF730FA6F
:102E4000E7606662A061BDE8F0810000BD378635AD
:102E50006F12833AFFF7D6BFFEF762BB30B58FB073
:102E600028216846FDF787F914210AA8FDF783F9A0
:102E700001210804CDE900100024029402250491E8
:102E8000CDE907504FF4E01009906846FEF7BCFC0E
:102E900008B172B6FEE70F20CDE90A054FF4806055
:102EA000CDE90C4002210AA80E94FEF7D1FB0028C0
:102EB00001D072B6FEE70FB030BD70470148FEF793
:102EC00082BF0000600200200148FEF77CBF0000C6
:102ED000F0020020F0B50268164B174C174D4FF06A
:102EE0008047984205D0B84203D0A04201D0A84202
:102EF00003D122F070064A683243984205D0B842A6
:102F000003D0A04201D0A84203D122F44074CA6881
:102F100022434C6922F08002224302608A68C26226
:102F20000A688262984201D1096901630121416105
:102F3000F0BD0000002C01400004004000080040EB
:102F400010B501F01F030121046A99408C4304620B
:102F5000016A9A401143016210BD10B5846842EACB
:102F6000032224F47F440A432243826010BD826816
:102F700022F070020A4342F00701816070470000AE
:102F800030B5036A026A22F0010202624268846973
:102F900024F073050C682C4323F002058B682B4347
:102FA0000A4DA8420BD123F00805CB6822F44072E9
:102FB0002B434D6923F0040315438A692A43426079
:102FC000846149684163036230BD0000002C014008
:102FD00030B5026A036A23F0100303624368846910
:102FE0000D6824F4E64444EA05248D6822F02002AA
:102FF00042EA05120B4DA8420ED1CD6822F08002A4
:1030000042EA05124D6923F4406343EA85038D6962
:1030100022F0400243EA850343608461496881638A
:10302000026230BD002C014030B5036A026A22F40E
:10303000807202624268C46923F4007324F073054D
:103040000C682C438D6843EA05230C4DA8420ED131
:10305000CD6823F4006343EA05234D6922F440520E
:1030600042EA05128D6923F4806342EA0512426048
:10307000C4614968C163036230BD0000002C014097
:1030800030B5046A026A22F4805202624268C3695F
:103090000D6823F4E64343EA05238D6824F40054C5
:1030A00044EA0534064DA84204D14D6922F4804219
:1030B00042EA85124260C36149680164046230BD1E
:1030C000002C014010B5036A046A24F00104046274
:1030D000846924F0F00444EA021423F00A020A434B
:1030E0008461026210BD10B5036A046A24F0100402
:1030F0000462846923F0A00324F4704444EA023299
:1031000043EA01118261016210BD10B5406A0021DD
:10311000C185C184FFF774F810BD70B5446A20689A
:10312000406994F84110C0F3C0100025212904D152
:1031300018B1E584204600F08EF82068406994F8C4
:103140004210C0F38010222904D118B1E585204631
:1031500000F05AF8606C40F0100060642046FFF701
:103160004FF870BD10B50146406A096809684FF014
:10317000000289062ED4C28501680C3151E8003F57
:1031800023F4807341E80034002CF5D10168143138
:1031900051E8003F23F0010341E80034002CF5D151
:1031A0000168143151E8003F23F0400341E8003446
:1031B000002CF5D1202180F84210016B012909D1A2
:1031C00001680C3151E8003F23F0100341E800345E
:1031D000002CF5D14263016B012902D0FFF7D2F92F
:1031E00010BD818DFEF7F8FF10BD10B5406A0121BA
:1031F0004163016B012902D0FFF7C5F910BD818D34
:103200004908FEF7E9FF10BD01680C3151E8002FB5
:1032100022F4907241E80023002BF5D101681431AB
:1032200051E8002F22F0010241E80023002BF5D1E4
:10323000016B012909D101680C3151E8002F22F0FE
:10324000100241E80023002BF5D1202180F8421024
:1032500000210163704701680C3151E8002F22F012
:10326000C00241E80023002BF5D1202180F8411055
:10327000704708B590F84210222901D0022008BDFD
:1032800082684FF480539A4201D1016921B1816A69
:103290009A421BD04AB10AE00268816A5268C2F3BE
:1032A00008020A80816A891C08E0026972B102681A
:1032B000526802F07F020A70816A491C8162C18DE6
:1032C000491E0904090CC18503D01BE0026852683D
:1032D000F1E70168CA6822F02002CA600168CA6882
:1032E00022F48072CA6001684A6922F001024A61D0
:1032F000202180F8421000214163026B012A03D093
:10330000FFF740F9002008BD016301680C3151E866
:10331000002F22F0100241E80023002BF5D10168B4
:103320000A68D20602D50A6849680091818DFEF7C5
:1033300053FFE7E770B5044600680169E26821F4CD
:103340004051114301612169A06808436169084344
:103350002168CA6841F20C639A430243CA6020683C
:103360004169A26921F44071114341611E492068FD
:10337000884202D1FEF712FA01E0FEF7FFF900EBF6
:10338000C00101EB0012606864218000B2FBF0F321
:10339000B3FBF1F36FF018067343B2FBF0F5B2FB29
:1033A000F0F605EB8305322303EB0515B5FBF1F5CC
:1033B000B6FBF1F605F0F00505EB0615B2FBF0F6ED
:1033C000B2FBF0F0B0FBF1F06FF01802504306EBE7
:1033D000800003EB0010B0FBF1F0216800F00F005B
:1033E0002844886070BD00000038014038B5816213
:1033F00004468285002013466064222284F842201D
:10340000E56B1B4AAA62E56B1A4AEA62E56B1A4A47
:103410002A63E26B50630A462168E06B091DFDF7E1
:1034200017FD2068016840680090206948B1206855
:103430000C3050E8001F41F4807140E80012002A6F
:10344000F5D12068143050E8001F41F0010140E838
:103450000012002AF5D12068143050E8001F41F016
:10346000400140E80012002AF5D1002038BD0000DC
:1034700065310008EB3100081B3100080148FEF7F8
:10348000C1BE000038030020FEE7490050EAC12019
:1034900018BF04204A0D18BF40F0010040F2FF722F
:1034A000B2EB515F08BF40F00200012808BF0520C1
:1034B00070470907090E002804DB00F1E02080F8BE
:1034C0000014704700F00F0000F1E02080F8141D98
:1034D000704700002DE9F74F144694B00021C4E96D
:1034E00002111599079121F00045C9498D4206DC6A
:1034F0001599C4E9000117B00020BDE8F08FC54957
:10350000DFF814A3A9423CDD0799C44E0029C44F3B
:10351000C44A1599534619DDFCF7ADFF554506D051
:10352000C14AC24BFCF7A7FFC4E900010AE04FF013
:10353000D352BE4BFCF79FFF32463B46FCF79BFF46
:10354000C4E9000117B00120BDE8F08FFCF7F2FEDE
:10355000554506D0B44AB54BFCF7ECFEC4E9000172
:103560000AE04FF0D352B14BFCF7E4FE32463B4643
:10357000FCF7E0FEC4E9000117B04FF0FF30BDE8F2
:10358000F08FAB49A942159978DB21F000418346C1
:103590008846A84AA84BFCF774FF0022A74BFCF70B
:1035A000C9FEFDF727FA0990FDF706FA06460F4611
:1035B0009C4A5346FCF765FF43465A46FCF75EFFBC
:1035C00080468A46984A994B30463946FCF759FF5F
:1035D0002A0D01250B9242465346FCF74FFF032D5F
:1035E000C4E9000139D00B98C1F30A51401A05EB28
:1035F00045111139814230DA9148C346784400EBD5
:103600000510CDF80CA00C90D0E9002330463946C7
:10361000FCF737FF02460B46049106905846039983
:10362000FCF729FF80468A4602460B465846039916
:10363000FCF721FF049B069AFCF71DFF83460C98BC
:1036400003913946D0E902233046FCF71AFF5A4667
:10365000039BFCF710FF6D1CBDE707980028A2BF75
:10366000099817B0BDE8F08F616881F00041616092
:10367000099817B04042BDE8F08FFFE784461598DF
:10368000C1F31301C0F30A50A0F2F5304FEA6018FD
:1036900000F01F06C6F1200013900020069007904E
:1036A00041F4801E05206D4676B1664A08EB0001A4
:1036B0007A4452F8213002EB8101B3404A681399F1
:1036C00022FA01F1194305E05F4908EB0002794451
:1036D00051F82210A1FB0E27A1FB0C131A449A42A9
:1036E00034BF0123002303EB070A05EB8003D3E972
:1036F00001B70F448F4234BF0121002193448B4412
:1037000011B1934502D903E0934501D2012100E0B4
:103710000021C3E901B7514445F82010011EA0F172
:103720000100C1DC0298059F00F10050800F12904B
:103730000298DDE903568000FDF73EF983462846EE
:103740000D91FDF74AF96FF01D02FCF77BFFCDE903
:103750000E013046FDF741F96FF03D02FCF772FFB4
:1037600080468A463846FDF738F96FF05D02FCF76F
:1037700069FF0746424653461191FCF7DBFDDDE940
:103780000E23FCF7D7FD5A460D9BFCF7D3FD002511
:103790000E465A4628460D9BFCF76DFEDDE90E23CA
:1037A000FCF769FE42465346FCF765FE3A46119B1C
:1037B000FCF764FEDFF898A0244A5346FCF761FE4C
:1037C00007468846234A244B31462846FCF759FED3
:1037D0003A464346FCF7AEFD074688464FF0A842FE
:1037E000534631462846FCF74CFE3A464346FCF722
:1037F000A1FD159A12F0004F04D0129A81F00041F9
:1038000052421292C4E90001129817B0BDE8F08F3D
:10381000FB21E93F7CD90240FB21F93F7370032E65
:103820008A19A33B000040543163621A61B4D03D51
:10383000FB21394183C8C96D305FE43F0000E03FA0
:10384000480F0000C40E0000A60E0000182D4454BE
:10385000FB21F93D3326A611460B113C2DE9FF4D06
:1038600021F0004807460C46B8F1795F08DAFDF709
:10387000C1F8002801BF0020324904B0BDE8F08D36
:103880003A46234610461946FCF7FBFD054602461C
:103890002D480E460B460621784400F05DF82A4676
:1038A0003346FCF7EEFDDDE9022382468B463846BF
:1038B0002146FCF7E6FD04460F4652465B46284685
:1038C0003146FCF7DEFD22463B46FCF7D4FD0746B9
:1038D0008A464FF0FF3228463146FCF7B3FE1B4ABA
:1038E00090450ADA3A465346FCF7C5FD04B000227B
:1038F000BDE8F04D134BFCF7C1BD154A4245A8BFCA
:10390000A8F500154FF00004B8BF124D22462B4613
:10391000FCF7B1FD0646884622462B4600200949A1
:10392000FCF7A9FD04460D463A465346304641464B
:10393000FCF7A1FD04B022462B46BDE8F04DFCF794
:103940009DBD00000000F03F7C0C00003333D33FEE
:103950000000E93F0000D23F2DE9F0414F1E00EB8F
:10396000C7010446D1E9000115461E4637F006029C
:103970000DD02A463346FCF784FD7F1E04EBC703B7
:10398000D3E90023FCF7D6FC37F00602F1D1022F71
:1039900025D0042F13D0062F18BFBDE8F0812A468A
:1039A0003346FCF76EFDD4E90A23FCF7C3FC2A4634
:1039B0003346FCF766FDD4E90823FCF7BBFC2A4636
:1039C0003346FCF75EFDD4E90623FCF7B3FC2A4638
:1039D0003346FCF756FDD4E90423FCF7ABFC2A463A
:1039E0003346FCF74EFDD4E90223FCF7A3FC2A463C
:1039F0003346FCF746FDD4E90023BDE8F041FCF76F
:103A000099BC00002DE9FF4D054621F0004084B02F
:103A10000C46B0F1795F0BDA2846FFF736FD042833
:103A200008BF00F06FF8284608B02146BDE8F08DC9
:103A30002A460B461046FCF724FD06460F462A464A
:103A40002346FCF71EFD804626488A4632463B4602
:103A500005217844FFF780FF83461098029160B3F8
:103A6000214A224B40465146FCF70BFDCDE90001AF
:103A70005A4640465146029BFCF703FD8246884663
:103A8000DDE906014FF0FF32FCF7DCFD524643460C
:103A9000FCF7F1FC32463B46FCF7F3FCDDE906237C
:103AA000FCF7E9FCDDE90023FCF7E5FC08B02A4659
:103AB0002346BDE8F04DFCF7E1BC0B465A463046C4
:103AC0003946FCF7DEFC084A084BFCF733FC42465B
:103AD0005346FCF7D6FC08B02A462346BDE8F04D15
:103AE000FCF728BCBA0B0000495555555555C5BFC4
:103AF0000122FCF7A7BD0022134610461146FCF731
:103B000032BD0000024A00201107FCF79BBD0000F7
:103B100001FDFFFF02E008C8121F08C1002AFAD108
:103B200070477047002001E001C1121F002AFBD13D
:103B300070470000014908607047000048000020FD
:103B400010B50446D4E904014843FCF792FDE16A4C
:103B5000FCF774FBE168FCF76BFBBDE8104000F07C
:103B600001B8000070B5074C074D02E02146FCF794
:103B70000DFBA842FAD201E0FCF75AFB214688422D
:103B8000FADA70BDDB0FC9400000808000B5244B1D
:103B900021F0004287B09A42DCBF0022134629DDA3
:103BA000204B9A4208D140B94FF00100FFF7C2FF05
:103BB000FFF7A1FF07B000BD03DBFFF799FF07B0D8
:103BC00000BD02AAFFF786FC10F0030104BF0DF14F
:103BD000080C9CE80F000DD0012001290ED002290D
:103BE00014D00DF1080C00909CE80F00FFF70AFFBD
:103BF00007B000BDFFF732FE07B000BD0DF1080CA5
:103C000000909CE80F00FFF7FDFE05E00DF1080CA9
:103C10009CE80F00FFF722FE07B081F0004100BDD5
:103C2000FB21E93F0000F07F2DE9F04114461D46DD
:103C300006460F46FCF77EFE00F07040B0F1004FE4
:103C40000FD0201C18BF0120284320F00040C0F1F5
:103C50007F6000F1E040C00F02BF20462946BDE86A
:103C6000F08130463946BDE8F081000070B5044669
:103C7000D0F89C1054300546FEF726FA2846D4F8B2
:103C8000A010FEF721FA2846D4F8A410FEF71CFA7B
:103C90006420FDF715F9E06810F0FF4F2BD11648AE
:103CA000164E002520623146A068FCF7F9FAE1695A
:103CB000FCF76CFAE061204600F0E2FA0A20FDF71A
:103CC000FFF86D1C642DEEDB4FF4FA752846FDF706
:103CD000F7F804F12C00FFF7BDF82046FFF730FF9E
:103CE000E0602846FDF7ECF80020E0612046BDE8E2
:103CF000704000F0C5BA70BDE4CB96400000C842E9
:103D000010B504462C30FFF7A5F82046FFF718FF42
:103D10002062207E012805D0022802D1D4F8F400C8
:103D2000E06110BDD4F8C000FAE700F0A9BA0000C5
:103D3000FDF7FEFBFFF792F8FEF7DEFDFEF7C6FD8E
:103D4000FEF730FEFEF782FEFEF712FFFEF7DCFE06
:103D5000FEF748FE504C4F480126206060604F48F7
:103D6000A0600720C4E9040600254D48E561A06273
:103D7000032020764B48E0603D224B4904F58870D3
:103D8000FCF7E0F9484911F83D2F04F5887000F878
:103D90003D2F4A7842708A788270CA78C2700A7958
:103DA00002714A7942718A798271CA79C2710A7A3A
:103DB00000F8082F497A4170042140F8031F0821B8
:103DC00041600C21816004F5C6703849C0E90015D6
:103DD0004FF07E518160C661C1603548C4F8DC0097
:103DE000344844F8E00F681EA06133483349C4E901
:103DF00001502948FEF7D9FE304927482839FEF7F7
:103E0000D8FE2E4924487C39FEF7D7FEFCF7B4FED5
:103E100000F062F8FCF74AFE294CFF2810D0022877
:103E200006D0012804D0012204212046FDF752F9D2
:103E30004FF40066002231462046FDF74BF903E0BF
:103E40000022F1E700F05AF800F040F80028F9D01D
:103E5000012231462046FDF73DF90F48FFF706FFE6
:103E60001848FDF715FF184C00F048F8207848B1C5
:103E70000948FEF779FF0848FFF742FF0648FFF7B9
:103E800054FF257060780028EED06560658065700D
:103E9000EAE70000000040414C00002000004040E4
:103EA0000000C8420B292040A80200200000204149
:103EB000CDCC4C3E0AD7233C00007041D8010020F5
:103EC000000C0140F002002004000020014880782E
:103ED000704700002E00002010B5642205490648F6
:103EE000FEF753F90448C06B0068016821F0040133
:103EF000016010BDC40300203803002010B500F09D
:103F000007F8002803D0BDE8104000F049B810BD04
:103F10002DE9F0411F48037833B100214278C7886A
:103F200001248C461C4E14E00020BDE8F0811A4D9F
:103F3000643D15F801E0FAB1BEF1AA0F20D0BEF140
:103F4000550F21D0858806F805E06D1C8580491C39
:103F500089B2B942EBD3037042700F4964226439CD
:103F60000E48FEF712F90D48C06B0068016821F099
:103F7000040101600120D8E7BEF1AA0FE7D10122B8
:103F800086F800E08480E2E700231A46A0F804C027
:103F9000DDE700002E000020280400203803002068
:103FA000F0B55A4D97B02878AA2829D16878012809
:103FB00026D12946A878C97801281CD0022821D00A
:103FC0002A46032892792CD02B46042853F8037FE5
:103FD0005E68DD799C68DB7A4FD005286AD00628B8
:103FE0007ED007287DD008280AD117B04848BDE800
:103FF000F040FEF706BE002902D146490120887034
:1040000017B0F0BD0029FBD1BFF34F8F42480168C4
:10401000424A01F4E06111430160BFF34F8F00BFDA
:10402000FDE73A4F07264FF6FF7000234AF2010CD6
:10403000FC5C60405FF000045FEAC07E02D08CEA66
:10404000500000E04008641CE4B2082CF4D35B1C70
:104050009BB2B342ECD3B5F807309842D0D12B795C
:10406000687917B00906BDE8F04041EA034141EA2A
:10407000002111432648FEF7D3BD38BA20F0FF00D7
:10408000104331BA22BA21F0FF0122F0FF020DF1F4
:10409000280C29431A438CE8070028220DA96846FA
:1040A000FCF750F80DF1280C19489CE80E00FEF7BB
:1040B000B3FDA5E738BA20F0FF00104331BA22BAA9
:1040C00021F0FF0122F0FF020DF1280C29431A43D1
:1040D0008CE8070028220DA96846FCF733F801E0B8
:1040E00008E00DE00DF1280C09489CE80E00FEF7F1
:1040F000A6FD85E717B00648BDE8F040FEF783BD92
:1041000017B00348BDE8F040FEF77FBD280400204B
:104110004C0000202E0000200CED00E00400FA0509
:104120002DE9F0470446006817460A4681460146D5
:104130009A461046FCF7B4F84F4E4FF07E55B04209
:1041400001D3002002E0A84200DD2846804649460F
:104150003846FCF7A5F8B04201D3002002E0A8429F
:1041600000DD2846074649465046FCF799F8B0421C
:1041700001D3002002E0A84200DD28460646DFF811
:10418000FC90656DD4F89C0058B3042831D0082801
:104190004946404635D0FCF751F8FCF778FA2864D8
:1041A000D4F8A00098B304283BD0082849463846E4
:1041B00041D0FCF743F8FCF76AFA616DC1F84000A2
:1041C000D4F8A400B0B3042845D0082849463046A6
:1041D0004AD0FCF733F8FCF75AFA616D0864BDE881
:1041E000F08749464046FCF729F8FCF750FA686327
:1041F000D6E749464046FCF721F8FCF748FAA863A1
:10420000CEE7FCF71BF8FCF742FAE863C8E7FFE7E4
:1042100049463846FCF712F8FCF739FA616D4863F5
:10422000CEE749463846FCF709F8FCF730FA616DED
:104230008863C5E706E0FCF701F8FCF728FA616D32
:10424000C863BDE749463046FBF7F8FFFCF71FFAA5
:10425000616D4863C3E749463046FBF7EFFFFCF763
:1042600016FA616D8863BAE7FBF7E8FFFCF70FFA0F
:10427000616DC863B3E70000000080800000E14486
:104280002DE9F84F04464168C069FCF743FA6068BD
:1042900008D380F00040E169FCF73CFA03D2606883
:1042A00080F00040E061206AFCF705FA00F0A8F811
:1042B0000646E0690D4680F00040FCF7FCF9324606
:1042C0002B46FCF7DEF8FCF709FA8346206AFCF778
:1042D000F2F9FFF75BFC06460D46E069FCF7EBF9E7
:1042E00032462B46FCF7CDF8FCF7F8F905464FF0BF
:1042F000FF312068FCF712F806465946FBF746FFE7
:1043000000903046FCF7D7F9804689465846FCF7BE
:10431000D2F982460F462846FCF7CDF905460E46EF
:104320000020364900F0BCF82A463346FCF7A9F8CD
:1043300052463B46FCF79FF84FF0FF32FCF782F9FC
:1043400042464B46FBF7F6FFFCF7C8F981464FF0B3
:10435000FF312068FBF7E2FFFCF7ADF90F4631466D
:104360002E4680460D460020244900F099F832463A
:104370002B46FCF786F806460D468BF00040FCF70E
:104380009AF932462B46FCF776F84FF0FF32FCF7ED
:1043900059F942463B46FBF7CDFFFCF79FF906462D
:1043A000FCF789F907460D464846FCF784F93A467A
:1043B0002B46FFF739FC07460D460098FCF77BF9C2
:1043C0003A462B46FFF730FCFCF788F905460146D4
:1043D0000098FBF72DFF804629464846FBF728FF4B
:1043E000074629463046FBF723FF034601B03A460D
:1043F00041462046BDE8F04FFFF792BE000008405E
:1044000000B5254B21F0004287B09A4203DC002220
:10441000134600922BE0214B9A4208D140B94FF04D
:104420000100FFF787FBFFF766FB07B000BD03DB6A
:10443000FFF75EFB07B000BD02AAFFF74BF810F0D4
:1044400003014FF001000DD0012914D002291AD028
:104450000DF1080C9CE80F00FFF700FA07B081F09F
:10446000004100BD0DF1080C00909CE80F00FFF723
:10447000C9FA07B000BD0DF1080C9CE80F00FFF76A
:10448000EDF907B000BD0DF1080C00909CE80F009D
:10449000FFF7B8FAE2E70000FB21E93F0000F07FF8
:1044A0002DE9F04106460F46FCF7F3F9041E0D46D0
:1044B00018BF0120284320F00040C0F17F6000F1C8
:1044C000E040C00F0ED0301C18BF0120384320F050
:1044D0000040C0F17F6000F1E040C00F04BF012048
:1044E000FFF728FB20462946BDE8F08101020203C0
:1044F0000405060708090A0B0C0D0E0F101000002A
:104500000000000000000102030406070809000083
:1045100000000102030400004C5555555555A53FB8
:104520007751C1166CC156BF9015CB19A001FA3E48
:10453000AD529C804F7E92BEC4B1B4BD9EEE213E72
:10454000D43888BEE9FAA8BD00004054FB21F93FE9
:104550003163621A61B4D03D0000601A61B4D03D8D
:104560007370032E8A19A33B0000002E8A19A33B07
:10457000C14920259A837B3900000000000000001B
:104580006E83F9A22915444ED15727FCC0DD34F5BE
:10459000999562DB4190433CAB6351FE61C5BBDE44
:1045A0003A6E24B7E0D24D42EA2E49061C92D10958
:1045B0001CEB1DFE3EA729B1F53582E88444BB2ED5
:1045C00026709CE9417E5FB439D69139F439538322
:1045D0008B5F849C3B28F9BDFF97F81F0F9805DE81
:1045E0008B112FEF1F6D0A5ACF7E366DB709CB277F
:1045F000663F464F2DEA5F9EC7BA27757BF1E5EB14
:10460000F739073DEA92528AB15FFB6B085D8D1F57
:10461000A6F810111111813FD561C119A0012ABF5F
:104620007DFEB157E31DC73EEB9C2B8AE6E55ABEE3
:104630007CD5CF5A3AD9E53D584600080000002005
:104640004C000000143B0008A44600084C00002069
:1046500044080000243B00080000000000000000A7
:10466000000000000000000000000000000000004A
:10467000000000000000000000000000000000003A
:10468000000000000000000000000000000000002A
:1046900001000000100000000000000000127A007D
:0446A0000000000016
:04000005080000ED02
:00000001FF
