:020000040800F2
:10000000000900200101000835390008472F0008C9
:1000100011360008550B00088D4000080000000054
:10002000000000000000000000000000AF3A0008DF
:10003000F50B00080000000037390008713B00088C
:100040001B0100081B0100081B0100081B01000820
:100050001B0100081B0100081B0100081B01000810
:100060001B0100081B0100081B0100081B01000800
:100070001B0100081B0100081B010008590B0008A8
:100080001B0100081B0100081B0100081B010008E0
:10009000814000081B0100081B0100081B0100082B
:1000A0001B0100081B0100081B0100081B010008C0
:1000B000D53B00081B010008E13B00081B010008BC
:1000C0001B0100081B0100081B0100081B010008A0
:1000D0001B010008754000081B0100081B010008F7
:1000E0001B0100081B0100081B010008DFF80CD0F1
:1000F00000F082FC00480047D54E000800090020AF
:100100000648804706480047FEE7FEE7FEE7FEE7B1
:10011000FEE7FEE7FEE7FEE7FEE7FEE7D33B00086B
:10012000ED000008202A04DB203A21FA02F0002129
:10013000704721FA02F3D040C2F1200291400843F7
:100140001946704740EA01039B0703D009E008C93C
:10015000121F08C0042AFAD203E011F8013B00F88C
:10016000013B521EF9D27047D2B201E000F8012BD8
:10017000491EFBD270470022F6E710B513460A4627
:1001800004461946FFF7F0FF204610BDF0B480EAA0
:100190000102D40F4200B2EB410F02D202460846E0
:1001A00011464A0042D0C30DDDB2C1F3C752AD1AA9
:1001B000202D35DAC1F3160141F4000204B1524298
:1001C000C5F1200602FA06F12A411044B3EBD05FD4
:1001D00023D0C4B1012DA0EBC35009DCF0BC4FF01B
:1001E000004202EAC352DBB200F5000000F0F7BAA9
:1001F000400000F1807000EBC350A0F1807040EA35
:10020000D170490009E0490841EAC071A0EBC35030
:1002100000F50000400800EBC350F0BC00F0D6BA77
:100220006142012202EB4101001BF6E7F0BC70477E
:1002300081F00041AAE780F00040A7E780EA0102D0
:1002400010B502F00043400022D04A001FD0010E3A
:1002500001EB1261C0F35600C2F3560240F40000F5
:1002600042F40002A0FB022000047F39140400D0F5
:10027000401C50EA124001D44000491EC2B20C0694
:1002800004EBD010401C4008802A02D003E000207C
:1002900010BD20F00100002900DA0020184310BD35
:1002A00030B480EA010202F0004530F0004221F053
:1002B000004013D090B1C30DD40DC2F31601C0F3AA
:1002C0001600E41A41F4000140F400027D3491422A
:1002D00001D3641C00E04900002C02DA30BC00208D
:1002E00070474FF400000023914201D3891A034361
:1002F00040084FEA4101F7D151B1914202D14FF08C
:10030000004105E002D24FF0010101E06FF0010170
:1003100003EBC450284430BC00F058BA420005D06A
:10032000C0F3C7525242914201DC0020704700EBFB
:10033000C15070472DE9FE4F804681EA0300C00F8F
:100340000C46009021F0004123F00045B8EB02007C
:10035000A94105D24046214690461C460B4602461E
:1003600023F00040104347D0270DC7F30A00C3F322
:100370000A510290401A019040286BDAC3F313002F
:1003800040F4801B0098924620B10023D2EB030A70
:1003900063EB0B0B01985946C0F14002504600F048
:1003A000F4F906460D4650465946019A00F0FCF90C
:1003B00010EB08006141002487EA115284EAE773D8
:1003C0001A4340D0009A62B3019A012A4FEA0752B9
:1003D00015DC001B61EB02014FF0004202EA0752FC
:1003E000CDE90042001C41F5801132462B4600F059
:1003F00033FA03B0BDE8F08F40462146F9E7001B11
:1004000061EB0201001C41F5801300185B412018CC
:10041000A2F5001747EB030140EAD570B6196D410C
:1004200011E06D084FEA360645EAC0754FEA0752FB
:10043000001B61EB0201001C41F5801149084FEAE5
:1004400030000019514132462B4603B0BDE8F04F51
:1004500000F0F3B90098012240000023D0EB020223
:1004600063EBE073009821464FEAE074B8EB0000BC
:1004700061EB0401E9E783F000435BE781F00041B1
:1004800058E72DE9FE4F81EA030404F0004421F00F
:10049000004100944FF0000B23F0004350EA0104A8
:1004A0005ED052EA03045BD0C3F30A54C1F30A5589
:1004B0002C44A4F2F3340194A0FB0254C1F31301C1
:1004C00041F48011C3F3130343F4801301FB02448E
:1004D00000FB034E840A970A44EA815447EA835793
:1004E000A4FB076802958D0A05FB07854FEA932C4C
:1004F00004FB0C542705029D4FEA065847EA1637BD
:10050000B5EB08056EEB070C870E920E47EA8117D4
:1005100042EA8312A7FB0201B6EB0B0164EB000475
:100520002B0D43EA0C335E1844EB1C50DA4651465F
:10053000E7FB0201C5F313044FEA0B3343EA1453FC
:100540004FEA0432019C43EA0603A4F10C0402942E
:10055000009CCDE900B400F07FF903B0BDE8F08F56
:1005600000200146F9E72DE9F04D81EA030404F08B
:10057000004B21F0004514464FF0000A23F00041E3
:1005800050EA050220D054EA01021DD0C5F30A57F3
:100590000246C5F31303C1F31300C1F30A5640F436
:1005A000801543F48013A7EB0608101BD64608F20B
:1005B000FD3873EB050002D308F1010801E0921841
:1005C0005B41B8F1000F03DA00200146BDE8F08D71
:1005D00000204FF48011064684460EE0171B73EB93
:1005E000050705D3121B63EB050306434CEA010C18
:1005F00049084FEA300092185B4150EA0107EDD1FB
:1006000052EA030012D082EA040083EA050108439B
:1006100005D0101BAB4106D20122002306E00022C8
:100620004FF0004302E06FF0010253101AEB060096
:100630004CEB085110EB0A0041EB0B01BDE8F04D0B
:1006400000F0FBB870B521F0004303430CD0C1F3B8
:100650000A550024D5EB040564EB0403D617AD1A44
:10066000B34102DB0020014670BD201841EB02516E
:1006700070BDC10F80EAE0700844CA0796230021CC
:1006800000F0ADB896230022114600F0A8B820F083
:100690000040C10DC0F3160040F400007F2901DACC
:1006A00000207047962903DCC1F19601C8407047CD
:1006B00096398840704700F0004230F000400AD080
:1006C000C10D01F56071C0F3160042EA0151C20884
:1006D00040071143704700200146704701F0004376
:1006E00030B421F0004150EA010206D00A0DA2F513
:1006F0006072C1F31301002A02DC30BC0020704795
:10070000440F44EAC104C100E01830BC00EBC25001
:1007100000F05CB8002801DBC0F10040002901DBDB
:10072000C1F10041884270472DE9F05F0546002085
:1007300092469B4688460646814640241BE0284652
:10074000414647462246FFF7EDFC53465A46C01A3B
:10075000914110D311461846224600F016F82D1A82
:1007600067EB01084F4622460120002100F00DF8FA
:1007700017EB00094E41201EA4F10104DFDC4846BE
:1007800031462A464346BDE8F09F202A04DB203A42
:1007900000FA02F1002070479140C2F1200320FAD4
:1007A00003F3194390407047202A06DBCB17203A09
:1007B00041FA02F043EAE07306E041FA02F3D04066
:1007C000C2F1200291400843194670470029A8BF92
:1007D0007047401C490008BF20F00100704710B46A
:1007E000B0FA80FC00FA0CF050EA010404BF10BC1F
:1007F000704749B1CCF1200421FA04F411FA0CF14C
:1008000018BF012121430843A3EB0C01CB1D4FEA84
:1008100000614FEA102042BF002010BC704700EB7F
:10082000C35010440029A4BF10BC7047401C4900AD
:1008300008BF20F0010010BC704710B5141E73F102
:10084000000408DA401C41F1000192185B411A4390
:1008500001D120F0010010BD2DE9F04D92469B46DC
:1008600011B1B1FA81F202E0B0FA80F22032904682
:10087000FFF78BFF04460F4640EA0A0041EA0B01EE
:1008800053465A46084313D0114653EA010019D083
:10089000C8F140025046FFF745FC05460E4650465B
:1008A00059464246FFF771FF084305D0012004E096
:1008B00020463946BDE8F08D0020054346EAE07643
:1008C0002C4337430A986305E40AA0EB0800002292
:1008D000FD0A44EA47540A3002D500200146E9E700
:1008E000010510196941DDE9084500196941BDE8B4
:1008F000F04DA2E72DE9F04D00231A461B1A8A415C
:1009000003DB00200146BDE8F08DC1F30A52C1F3BC
:10091000130141F480154FF0000BD10702D10018EC
:100920006D41521E0027044640F2FF11384601EB8C
:10093000620A3E468046024600204FF48011FFF7CF
:10094000F1FBC2197141BB1846EB0100B4EB030C7B
:1009500075EB000C04D3E41A65EB000517460E4650
:10096000241908F101006D4180463428E3DDF919AE
:1009700046EB0600091BA84103D24FF0FF32134695
:1009800001E0002213461BEB070046EB0A51BDE8CD
:10099000F04DFFF752BF70B5044601F0004500204E
:1009A000054304D14FF00045644265EB010103F0BB
:1009B0000045284305D118464FF00043524263EBEF
:1009C0000003101B73EB010002D24FF0004009E05E
:1009D00082EA040283EA01034FF000501A4301D176
:1009E0004FF0C0404FEA2062EFF3008162F31F61D5
:1009F00081F3008870BD0000064C074D06E0E068FA
:100A000040F0010394E8070098471034AC42F6D355
:100A1000FFF770FB58560008785600080EB5C10F56
:100A200080EAE0700844CA07002140F233438DE8B1
:100A30000E000A460B46FFF70FFF03B000BD0EB5D0
:100A400040F2334102910021CDE900110A460B46E4
:100A5000FFF702FF03B000BD70B5C1F30A5201F009
:100A600000450024C1F3130140F2FF3341F480112B
:100A70009A4201DA002070BD40F233439A42A2F25A
:100A8000334203DC5242FFF74DFB00E090402C4321
:100A9000F1D0404270BD00003EB5174CFF2002214E
:100AA0000094CDE9011001230C226C21134801F0C0
:100AB0009BF82178607801F00F0140EA0120FFF7F0
:100AC000E1FD606010F1FF4F03D30D49FFF75EFBBE
:100AD00060600121FFF722FCFFF7EDFD094A0A4B98
:100AE000FFF7CFFC0022094BFFF73DFD03B0BDE847
:100AF0003040FFF7F3BD00000C000020F80200209A
:100B000000F07F456E861BF0F921094000FEAF40E2
:100B10001FB500208DF80C000121FF2203A88DE8ED
:100B200007000B460B226C21094801F05DF89DF887
:100B30000C00810602D4FF2004B010BD010701D5CE
:100B40000220F9E7C00601D50120F5E70020F3E710
:100B5000F8020020FEE70000014800F0E1BC0000C0
:100B60006C04002070B510484568104CE668206899
:100B700008B900F01DF82069A84213D0854201D9B8
:100B8000281A01E0C043284461690844C4E90450BC
:100B90000146B0FBF6F028B162680244626000FBD7
:100BA00016106061606870BD001000E01400002045
:100BB0000C4810B5016841F0807101600A480021BD
:100BC0004160016841F00101016001F0C3FA074989
:100BD00088608868064AB0FBF2F0C86001200860AF
:100BE000002010BDFCED00E0001000E0140000202B
:100BF00040420F00704700000148408870470000E5
:100C00003800002070B5104D0E4C00202870688010
:100C100020680E49884213D1A088012810D1E188AC
:100C200000290DD0B1F57D7F0AD806480C3004F0BC
:100C30003FF82189814203D101202870E088688033
:100C400070BD000000FC00083800002055AAB0EE7E
:100C5000014800787047000038000020084A10B5AD
:100C600013781BB111B15288914201D0012010BDFF
:100C7000044B0A461946FFF765FA002010BD000034
:100C8000380000200CFC0008FEB50C46050026D0FC
:100C90002CB3B4F57D7F22D8144801260090ADF81E
:100CA0000460ADF806402146284604F001F8ADF88E
:100CB00008004FF6FF700E4FADF80A00384604F0FA
:100CC0001FF860B90C226946384604F036F830B98E
:100CD000074822460C30294604F02FF808B10120BD
:100CE000FEBD0448067044800020FEBD55AAB0EE4B
:100CF00000FC00083800002072B6FEE7064900201C
:100D0000C8610648016941F004010161016941F0CF
:100D10004001016170470000E00400200020024013
:100D2000064A0021D16106490A6942F002020A61BD
:100D30004861086940F0400008617047E004002005
:100D400000200240044B0022DA61044A136943F098
:100D50000103136101807047E0040020002002407D
:100D600014480022C168CB06134904D5CA6942F071
:100D70000202CA611022C3685B0705D5CB6943F044
:100D80000103CB6142F00402C369DB0707D0CB69E2
:100D900043F00403CB61C16921F00101C161A2F5F7
:100DA0008071013901D0C2607047C16921F0010131
:100DB000C161704700200240E004002070B5054684
:100DC00000F048FE0646114C09E0681C07D025B12A
:100DD00000F040FE801BA84201D9032070BDE068EE
:100DE000C007F2D1E068800601D52020E060E0680D
:100DF000C00605D4E069C00702D1E068400703D50A
:100E0000FFF7AEFF012070BD002070BD0020024042
:100E100090F82020012A07D0022A05D0416A41F427
:100E20008021416201207047006842690A434261A3
:100E30000020704710B590F820300268012B07D0D1
:100E4000022B05D0416A41F480214162012010BD8E
:100E5000D2F8000240F00100C2F80002087D00F064
:100E60001F0301209840D2F81C328343C2F81C3281
:100E7000CB69B3B9D2F80C328343C2F80C328C89F7
:100E80004B6864F31F434C6902EBC404C4F840325E
:100E90000C890B6864F31F434C6902EBC404C4F86B
:100EA0004432CB69012B16D1D2F80C320343C2F87D
:100EB0000C320C884B6864F31F434C6902EBC4048A
:100EC000C4F840320C89CB6864F31F434C6902EBD1
:100ED000C404C4F844328B69002BD2F804320FD01A
:100EE00053EA0003C2F804320B69002BD2F8143223
:100EF00008D00343C2F81432096A012904D008E07B
:100F00008343EFE78343F5E7D2F81C120143C2F8AD
:100F10001C12D2F8000220F00100C2F800020020EA
:100F200010BD7047406A704770B590F82040012CA2
:100F300005D0022C03D0416A41F4802128E00468E6
:100F400009B32469A40720D04FF4D874056804EBD2
:100F500001142D5915F00405956005682D591AD016
:100F6000ED08556005682C5904F00204D4604FF474
:100F7000DA74056804EB01142E5906F00F06082EEA
:100F80000CD308250DE0E468DCE7416A41F4001168
:100F90004162012070BD6D0D1560E3E72D5905F02C
:100FA0000F05156105682D59C5F30725956105687D
:100FB0002C59240C54614FF4DC72046802EB0112CA
:100FC000A4581C700468A458240A5C700468A458CF
:100FD000240C9C700468A258120EDA704FF4DE7272
:100FE000046802EB0112A4581C710468A458240A76
:100FF0005C710468A458240C9C710468A258120EF9
:10100000DA71006829B1016941F020010161002015
:1010100070BDC16841F02001C160F8E72DE9F05FC3
:101020000546006800244669D0F804908768D0F827
:101030000CB0D0F810A0D0F81880F10748D0F9070C
:1010400014D001218160B80703D5284600F0F3F9D8
:101050000CE0780702D54FF4006407E0380702D5AA
:101060004FF4805402E0284600F0E4F9F80516D564
:1010700029684FF480708860B80503D5284600F0D1
:10108000DCF90CE0780502D544F4005407E038059B
:1010900002D544F4804402E0284600F0CDF9F8037C
:1010A00016D529684FF480308860B80303D52846E8
:1010B00000F0C5F90CE0780302D544F4004407E0E1
:1010C000380302D544F4803402E0284600F0B6F933
:1010D000300707D55FEACB6004D52968102044F4B7
:1010E0000074C86070074FF0080707D55FEA0B70FF
:1010F00004D52868C760284600F05AF9B00706D51D
:101100002868C068800702D0284600F053F97006AE
:1011100007D55FEACA6004D52968102044F48064CA
:101120000861B00607D55FEA0A7004D52868076130
:10113000284600F04FF9F00606D5286800698007B8
:1011400002D0284600F047F9B00308D55FEAC9602D
:1011500005D5296810204860284600F03DF9F003C5
:1011600007D55FEA097004D528684760284600F073
:1011700067F9300446D55FEA497040D5F00504D5DB
:101180005FEAC87001D044F00104B00504D55FEAFD
:10119000887001D544F00204700504D55FEA4870F8
:1011A00001D544F00404300529D518F0700F26D07D
:1011B00008F07000402815D006DC102809D020283F
:1011C0000AD0302816D10AE050280ED0602811D15C
:1011D0000EE044F008040DE044F010040AE044F08E
:1011E000200407E044F0400404E044F0800401E0FF
:1011F00044F480742868816921F070018161296854
:1012000004204860002C05D0686A204368622846A4
:10121000FFF787FEBDE8F09F70B5040003D094F897
:10122000200010B104E0012070BD204600F082F8DB
:101230002068016841F00101016000F00BFC0546E7
:10124000052604E000F006FC401B0A2811D820689F
:101250004068C007F6D02068016821F002010160F3
:1012600000F0F8FB05460BE000F0F4FB401B0A28F9
:1012700006D9606A40F40030606284F82060D2E7EA
:10128000206840688007EFD4207E0128206801682C
:101290003DD021F080010160607E01282068016856
:1012A00038D021F040010160A07E0128206801684B
:1012B00033D021F020010160E07E01282068016820
:1012C0002ED041F010010160207F012820680168C4
:1012D00029D021F008010160607F012820680168A1
:1012E00024D021F004010160D4E902010843D4E9CB
:1012F0000412114308436168491E08432168C8610C
:1013000000206062012084F82000002070BD41F0C0
:101310008001C0E741F04001C5E741F02001CAE784
:1013200021F01001CFE741F00801D4E741F00401BA
:10133000D9E7000010B586B000210091019102911B
:1013400003910068174988422AD11748C16941F0C2
:101350000071C161C16901F000710491816941F0BE
:10136000040181618069114C00F0040004904FF485
:10137000006000906946204600F06EFAA0140090CC
:1013800002200190032003906946204600F064FA91
:1013900000221146142000F0E3FD142000F0D2FDDD
:1013A00006B010BD0064004000100240000801407B
:1013B0007047000010B50549054802F091FA002871
:1013C00003D102490120C91E087010BD3000002061
:1013D000C4040020704770477047000070B5044691
:1013E00090F82000012804D0606A40F40020606278
:1013F00018E0022084F820002068016821F0010133
:10140000016000F027FB05460EE000BF00F022FB64
:10141000401B0A2808D9606A40F400306062052049
:1014200084F82000012070BD20684068C007EDD11D
:10143000606270BD70477047704770477047704773
:10144000704710B590F821100022022905D0042120
:10145000816380F82020012010BD01680B6823F013
:101460000E030B6001680B6823F001030B6090F81A
:101470004030C46B012101FA03F3636080F821104E
:1014800080F82020104610BD10B590F821100024DF
:10149000022903D00421816301243DE001680A6828
:1014A00022F00E020A6001680A6822F001020A6056
:1014B0001A4A0168914201D1012121E0174A1432F0
:1014C000914201D110211BE0144A2832914201D1EE
:1014D000891515E0114A3C32914201D189140FE07F
:1014E0000E4A5032914202D14FF4803108E00B4A4B
:1014F0006432914202D14FF4801101E04FF08071CB
:10150000064A083A5160012180F82110002180F834
:101510002010416B01B18847204610BD08000240F1
:101520002DE9F05FC16B0C6801680B68D0F840C012
:10153000042202FA0CF2494DDFF824A1494E4A4F29
:10154000DFF828B1DFF828E122422CD05A072AD54B
:101550000A68920603D40A6822F004020A6001684D
:10156000A94201D1042219E0514501D1402215E0E0
:10157000B14202D14FF4806210E0B94202D14FF47F
:1015800080420BE0594502D14FF4802206E07145BC
:1015900002D14FF4800201E04FF080622F490839F8
:1015A0004A60C16A3BE04FF0020808FA0CF818EAFA
:1015B000040F4FF000094FF0010235D05FEA837845
:1015C00032D50B689B0605D40B6823F00A030B6029
:1015D00080F821200168A94201D1022219E0514579
:1015E00001D1202215E0B14202D14FF4007210E087
:1015F000B94202D14FF400520BE0594502D14FF4E9
:10160000003206E0714502D14FF4001201E04FF0C4
:101610000072124908394A6080F82090816A0029D6
:101620001AD0BDE8F05F0847082505FA0CF52542F9
:1016300012D01B0710D50B6823F00E030B6090F837
:101640004010C36B02FA01F15960826380F82120D7
:1016500080F82090016BE2E7BDE8F09F08000240AF
:101660001C0002403000024044000240580002408A
:101670006C00024030B528B308C81349142219443D
:10168000B1FBF2F18900C163104981630221417706
:101690001A6843F6F0718A43D0E900142143D0E977
:1016A00002452C4321430469214344692143846951
:1016B00021431143196000214163012242770177E0
:1016C000084630BD012030BDF8FFFDBF00000240DC
:1016D00070B5044600F0BEF90546601C02D004480F
:1016E0000078044400F0B6F9401BA042FAD370BD64
:1016F0003C0000202DE9F047054626480F4601260C
:10170000017E01290FD00121814601762868DFF88A
:1017100088804CF25034022808D0A2462046FFF7B9
:101720004DFBA8B131E00220BDE8F0872046FFF76D
:1017300045FB08BB0120FFF7E1FA2046FFF73EFB1F
:10174000D8F81010064621F00401C8F810101CE06B
:101750004FF0FF303860AC6811E02046FFF7E0FA48
:101760005046FFF72BFBD8F81010060021F00201BD
:10177000C8F8101001D03C6007E004F58064D5E99A
:10178000020100EB8120A042E7D8002189F818105F
:101790003046C9E7E0040020002002400348016908
:1017A00041F08001016100207047000000200240EC
:1017B0002DE9F05F07461C4888460024017E154647
:1017C0001E46012909D00121814601764CF2503A8A
:1017D0005046FFF7F3FA18B122E00220BDE8F09F6F
:1017E000012F02D0022F00D00427D346DFF83CA0FF
:1017F000220128463146FEF795FC81B208EB4400F1
:10180000FFF7A0FA5846FFF7D9FADAF8102022F0CD
:101810000102CAF8102018B9641CE4B2BC42E7D334
:10182000002289F81820D9E7E004002000200240B7
:10183000064900200A69120607D5054A4A60054A8A
:101840004A600969090600D501207047002002405E
:1018500023016745AB89EFCD2DE9F84FDFF8B8914B
:101860000024A9F1040B23460F2709F1040AABF168
:10187000040EC9E00125A5402A40AA427DD1674E49
:10188000D1F804C0ACEB0608B44532D014DCBCF18E
:10189000030F3AD009DCBCF1000F2AD0BCF1010FD4
:1018A0001CD0BCF1020F31D11DE0BCF1110F17D0DB
:1018B000BCF1120F2AD119E0B8F5881F19D006DC47
:1018C000B8F5803F15D0B8F5801F1FD111E0B8F5ED
:1018D000001F0ED0B8F5041F18D10AE0CB6815E040
:1018E000CB681B1D12E0CB6808330FE0CB680C33CC
:1018F0000CE08B682BB1012B4FF0080303D045613E
:1019000004E0042302E0056100E00023FF2A01D87F
:10191000064601E000F104064FEA840501D9A5F16D
:101920002005D6F8008007FA05FC28EA0C0803FA1F
:1019300005F548EA0508C6F800804D68ED0062D557
:10194000374DAE6946F00106AE61AD6924F003067D
:1019500005F001050095334D06EB050CDCF8085049
:10196000A607360F07FA06F825EA0805DFF8B8805B
:10197000404503D14FF0000817E044E0DFF8AC80A9
:10198000404502D14FF001080FE0DFF8A480404548
:1019900002D14FF0020808E0DFF89880404502D1FC
:1019A0004FF0030801E04FF0040808FA06F848EA8F
:1019B0000508CCF808804D68D9F80060ED024D4666
:1019C00001D5164300E096432E604D68DAF80060BA
:1019D000AD02554601D5164300E096432E604D6892
:1019E000DBF80060AD035D4601D5164300E0964389
:1019F0002E604D68DEF80060ED03754601D5164394
:101A000000E096432E60641C0D682A46E5407FF492
:101A100031AFBDE8F88F000008040140000011104C
:101A2000001002400000014000080140000C01408D
:101A30000010014000140140C26821EA02030A407C
:101A400043EA0241016170470AB10161704709042C
:101A5000FBE7000001488068704700003C00002060
:101A600070B5040025D094F83D00002520B984F815
:101A70003C50204600F0E0F9242084F83D00206826
:101A8000016821F0010101602068016841F4004112
:101A900001602068016821F40041016000F03AFB18
:101AA0004D4A6168914201D84C4900E04C49884256
:101AB00001D2012070BD4B492368B0FBF1F15E6893
:101AC00026F03F060E435E606368934206D94FF4EA
:101AD000967359434FF47A73B1FBF3F12368491CB1
:101AE0001E6A26F03F06314319626168914210D8A0
:101AF0004900401EB0FBF1F2521CC2F30B02042A53
:101B000001D2042022E0B0FBF1F0401CC0F30B0036
:101B10001CE0A268F2B301EBC10303EB0116431E04
:101B2000B3FBF6F35B1C43F480431B0549D092B32F
:101B300001EBC10202EB0111401EB0FBF1F0401CB1
:101B4000C0F30B0040F4804040F400402168CA69B3
:101B50004CF6FF739A431043C861D4E90710014360
:101B60002068026822F0C00211430160D4E9030139
:101B700001432068826848F2FF339A431143816031
:101B8000D4E9050108432168CA6822F0FF02104326
:101B9000C86001E00EE016E02068016841F0010134
:101BA00001602564202084F83D00256384F83E50C0
:101BB000002070BD01EB4106431EB3FBF6F35B1C36
:101BC000B3E70120C2E701EB4101401EB0FBF1F099
:101BD000401CC0F30B00B7E7A086010080841E0004
:101BE00000093D0040420F002DE9FF4F83B0002562
:101BF000DDE910799A4693460446DDF84880009561
:101C0000FFF728FF064694F83D0020287CD11923D1
:101C1000012285492046009601F02CFA0028F5D1D2
:101C200094F83C0001286FD0012084F83C00206823
:101C30000168C90703D1016841F001010160206812
:101C4000016821F400610160222084F83D004020F9
:101C500084F83E0025646762A4F82A90608D208590
:101C60007248E062CDE9008653465A462046049900
:101C700001F082F900287DD1208DDFF8B491202772
:101C800068B1012814D00228206801681ED041F4F0
:101C9000806101602068416980690090B6E0206839
:101CA000416981690091016841F400710160ADE012
:101CB0002068016821F48061016072B62068416982
:101CC00081690091016841F400710AE041F400610A
:101CD000016072B62068416981690091016821F450
:101CE0008061016062B691E0032868D801280CD0B9
:101CF000022843464FF000024946204600960FD086
:101D000001F0B8F9B0BB10E08BE032464146204606
:101D100001F056FA70BB20680069616A08706CE0D7
:101D200001F0A8F930BB72B634E02068016821F4F4
:101D30008061016072B620680069616A0870606A3B
:101D4000401C6062208D401E2085608D401E608595
:101D5000384846F2A8110068B0FBF1F0C0EBC000B3
:101D600000EB80000090401E009008D02068406981
:101D7000C04300E029E040070CD50098F3E744F8A1
:101D8000305F6773A573206940F02000206162B660
:101D900025731AE02068016841F400710160206831
:101DA0000069616A0870606A401C6062218D491E8A
:101DB0002185618D491E618562B621681BE032462E
:101DC0004146204601F0FCF918B1012007B0BDE8FA
:101DD000F08F20680069616A0870606A401C606268
:101DE000218D491E2185618D491E618521684A69C1
:101DF000D24352070AD409690170606A401C6062CC
:101E0000208D401E2085608D401E6085208D00281D
:101E10007FF46AAF84F83D7084F83E5084F83C50FB
:101E2000D4E70220D2E70000020010000000FFFF0C
:101E3000040001004800002010B586B00021009188
:101E400001910291039100680F4988421AD10F4C09
:101E5000A06940F00800A061A069694600F0080090
:101E60000490C020009012200190032003900848A5
:101E7000FFF7F2FCE06940F40010E061E06900F473
:101E80000010049006B010BD005400400010024045
:101E9000000C01400248816802781144816070475B
:101EA0003C000020074810B5016841F010010160B6
:101EB000032000F075F80F2000F006F800F024F879
:101EC000002010BD0020024070B50D4D04464FF4B7
:101ED0007A712878B1FBF0F00A490968B1FBF0F09B
:101EE00000F0EEFA48B9102C07D200222146501E0D
:101EF00000F036F800206C6070BD012070BD00005D
:101F00003C000020480000200C4808B5816941F0E1
:101F100001018161816901F001010091C16941F014
:101F20008051C161C06900F0805000900448416850
:101F300021F0E06141F00071416008BD00100240F5
:101F400000000140002809DB00F01F020121914040
:101F50004009800000F1E020C0F800117047000047
:101F6000F0B40E4B1B680C46C3F30223C3F1070504
:101F7000042D00D90425191D072901D2002300E0F2
:101F8000DB1E012606FA05F1491E214099409E40BC
:101F9000761E16403143F0BC02F09EB80CED00E016
:101FA000064900F0070208684FF6FF03184040EAB0
:101FB0000220034A10430860704700000CED00E067
:101FC0000000FA05BFF34F8F05480168054A01F488
:101FD000E06111430160BFF34F8F00BFFDE70000D8
:101FE0000CED00E00400FA052DE9F0470F4605006E
:101FF00061D0434E306800F00700B84209D2306823
:1020000020F0070038433060306800F00700B84225
:1020100051D128683B4C810712D5400703D5606831
:1020200040F4E06060602878000703D5606840F401
:10203000605060606068A96820F0F000084360604C
:102040002878C00728D06868012810D021680228A5
:1020500010D0890700292EDA616821F003010143BD
:102060006160FFF7F7FC804641F288390DE0216896
:102070008903EFE78901EDE7FFF7ECFCA0EB08012E
:10208000494502D90320BDE8F0876068696800F01F
:102090000C00B0EB810FEFD1306800F00700B842C0
:1020A0000BD9306820F0070038433060306800F00A
:1020B0000700B84201D00120E5E72878400705D5A0
:1020C0006068E96820F4E0600843606028780007F1
:1020D00006D56068296920F4605040EAC10060605C
:1020E00000F038F86168084AC1F30311515CC84038
:1020F0000649086006480068FFF7E6FE0020C2E7D0
:1021000000200240001002401A550008480000203C
:10211000400000200448054900684968044AC1F3AA
:102120000221515CC8407047480000200010024066
:102130002A5500080448054900684968044AC1F363
:10214000C221515CC8407047480000200010024086
:102150002A5500080E4A51680E4801F00C03042B62
:1021600011D0082B0FD10C48C1F38343C903C05CC5
:102170000AD55168084AC1F34041921E515C054A94
:102180005043B0FBF1F070470449484370470000EA
:102190000010024000127A000A55000800093D00B4
:1021A0002DE9F84F040070D02078C04DC00749D009
:1021B0006868C0F38100012807D06868C0F3810017
:1021C000022809D16868C00306D52868800339D57C
:1021D00060680028E7D035E06068B0F5803F0BD03C
:1021E00010B1B0F5A02F11D0286820F480302860FD
:1021F000286820F4802002E0286840F480302860BD
:10220000606890B1FFF726FC06460AE0286840F4B3
:1022100080202860F0E700BFFFF71CFC801B6428CB
:1022200073D828688003F7D50CE0FFF713FC064647
:1022300005E000BFFFF70EFC801B6428F0D828687B
:102240008003F7D420789A4E80074FF001094FF0B1
:10225000000839D5686810F00C0F07D06868C0F323
:102260008100022809D16868C00306D42868800765
:1022700014D52069012808D110E02069B0B1C6F852
:102280000090FFF7E7FB074605E00AE1FFF7E2FBF6
:10229000C01B0228C4D828688007F7D52868616960
:1022A00020F0F80040EAC10028600DE0C6F8008088
:1022B000FFF7D0FB074604E0FFF7CCFBC01B02286A
:1022C00023D828688007F7D4207800072CD57948D0
:1022D000A169D9B1C0F80090FFF7BCFB074604E044
:1022E000FFF7B8FBC01B02280FD8686A8007F7D534
:1022F00071484FF4FA510068B0FBF1F0009000BF54
:102300000098411E0091FAD20EE080E0C0F80080F3
:10231000FFF7A0FB074604E0FFF79CFBC01B022869
:1023200075D8686A8007F7D42078400760D5E869D7
:102330000027C00008D4E86940F08050E861E869EF
:10234000012700F0805000905C480168C90513D453
:102350000168834641F480710160FFF77BFB824690
:1023600006E000BFFFF776FBA0EB0A0064284ED81A
:10237000DBF80000C005F5D5E06801280AD008B1F7
:10238000052813D0286A20F001002862286A20F06E
:10239000040002E0286A40F001002862E06841F28F
:1023A000883B98B1FFF756FB82460BE0286A40F065
:1023B00004002862EEE700BFFFF74CFBA0EB0A0128
:1023C00059455AD8286A8007F6D50CE0FFF742FB3A
:1023D000824605E0FFF73EFBA0EB0A0159454CD8C9
:1023E000286A8007F6D41FB1E86920F08050E861C0
:1023F000E06988B36968C1F38101022944D00228E9
:10240000C6F8608004D0FFF725FB044638E034E0CE
:10241000FFF720FB074604E0FFF71CFBC01B022868
:102420002BD828688001F7D4206AB0F5803F05D109
:102430006868A16820F4003008436860D4E90801A6
:102440000843696821F4741108436860C6F8609015
:10245000FFF700FB044606E025E000BFFFF7FAFAAD
:10246000001B022809D828688001F7D51BE000BFAF
:10247000FFF7F0FA001B022802D90320BDE8F88F0D
:1024800028688001F4D40EE00128F7D06868226A39
:1024900000F48031914204D1616A00F470108842E6
:1024A00001D00120EAE70020E8E700000010024028
:1024B0000000424280044242480000200070004078
:1024C00010B5401EB0F1807F01D3012010BD4FF048
:1024D000E02460610F21601701F0FEFD0020A06183
:1024E00007202061002010BD7047704770B590F83C
:1024F0003C20012A26D0012480F83C40022280F8AA
:102500003D2003685A689D6822F070060A683243CD
:102510005A600D4B02689A4208D0B2F1804F05D044
:102520000A4B9A4202D00A4B9A4204D1496825F0DC
:1025300080031943916080F83D40002180F83C10F1
:10254000084670BD022070BD002C01400004004010
:102550000008004010B5040003D094F83D0010B10D
:1025600007E0012010BD002084F83C00204600F068
:102570001FF8022084F83D00211D206801F036FB81
:10258000012084F8460084F83E0084F83F0084F877
:10259000400084F8410084F8420084F8430084F845
:1025A000440084F8450084F83D00002010BD000080
:1025B00008B501681948B1F1804F0BD0184A914213
:1025C00017D1C16941F00201C161C06900F0020088
:1025D000009008BDC16941F00101C161C0690022DC
:1025E00000F00100009002211C20FFF7B9FC1C2024
:1025F00010E00C4A9142ECD1C16941F00401C16183
:10260000C069002200F00400009001211E20FFF7A5
:10261000A7FC1E20BDE80840FFF794BC0010024054
:10262000000400400008004090F83D10012901D04E
:1026300001207047022180F83D100168CA6842F00D
:102640000102CA6000680B49884208D0B0F1804F8F
:1026500005D00949884202D00849884204D18168DE
:1026600001F00701062903D0016841F00101016072
:1026700000207047002C014000040040000800408A
:1026800070B5044690F83C000025012817D00126BB
:1026900084F83C60022084F83D002068826822F0C3
:1026A000770222F47F4282600868502838D00DDC1F
:1026B00020284FD005DC90B3102811D14AE0022029
:1026C00070BD302846D040280AD13BE060282FD08A
:1026D00070280DD0B0F5805F03D0B0F5005F12D048
:1026E000012584F83D60002084F83C00284670BD38
:1026F000CB68D1E90121206801F0BBFA206881682C
:1027000041F0770109E0CB68D1E90121206801F0AF
:10271000B0FA2068816841F480418160E1E719E006
:10272000CA684968206801F059FB5021206806E01A
:10273000CA684968206801F062FB6021206801F0E6
:10274000A2FACEE7CA684968206801F047FB402139
:102750002068F4E7226801461046F0E7704770B53C
:102760000446006801694FF00005C943890715D484
:10277000C168C943890711D4E91E0161012020778E
:10278000206880698007204602D0FFF7E7FF04E059
:1027900000F0D0F8204600F062F925772068016942
:1027A000C943490717D4C168C943490713D46FF017
:1027B00004010161022020772068806910F4407FC5
:1027C000204602D0FFF7CAFF04E000F0B3F820462D
:1027D00000F045F9257720680169C943090716D437
:1027E000C168C943090712D46FF0080101610420D0
:1027F00020772068C0698007204602D0FFF7AEFF2F
:1028000004E000F097F8204600F029F925772068C9
:102810000169C943C90617D4C168C943C90613D49D
:102820006FF010010161082020772068C06910F462
:10283000407F204602D0FFF791FF04E000F07AF8D5
:10284000204600F00CF9257720680169C943C907C3
:1028500008D1C168C943C90704D1891E0161204656
:1028600000F04CF920680169C943090609D4C16820
:10287000C943090605D46FF0800101612046FFF7C6
:1028800033FE20680169C943490609D4C168C943B8
:10289000490605D46FF040010161204600F040F97F
:1028A00020680169C94389060BD4C168C9438906F8
:1028B00007D46FF0200101612046BDE87040FFF7AA
:1028C00014BE70BD30B585B0002100910191029118
:1028D000039100681349884221D11348816941F06E
:1028E00004018161816901F004010491816941F071
:1028F000080181618069022500F0080004908020B1
:10290000CDE900050324694603940848FEF7A4FFB7
:10291000CDE90045694606480394FEF79DFF05B0E2
:1029200030BD0000000400400010024000080140DB
:10293000000C0140704770B5044690F83C0000263A
:102940000D4601280FD0012084F83C006AB1042A0A
:102950001DD0082A2FD00C2A3FD00126002084F851
:102960003C00304670BD022070BD206801F094F933
:102970002068816941F0080181612068816921F046
:1029800004018161206881692A69114311E020688E
:1029900001F0AAF92068816941F400618161206831
:1029A000816921F480618161206881692A6941EA35
:1029B00002218161D2E7206801F0C2F92068C16973
:1029C00041F00801C1612068C16921F00401C161C1
:1029D0002068C1692A69114311E0206801F0DCF91F
:1029E0002068C16941F40061C1612068C16921F4B6
:1029F0008061C1612068C1692A6941EA0221C1611F
:102A0000ACE710B5040003D094F83D0010B107E026
:102A1000012010BD002084F83C00204600F01EF884
:102A2000022084F83D00211D206801F0DFF801201C
:102A300084F8460084F83E0084F83F0084F84000A3
:102A400084F8410084F8420084F8430084F844008C
:102A500084F8450084F83D00002010BD70477047A1
:102A600010B50446022249B104290ED0082913D01A
:102A700094F84100012816D0012010BD94F83E00C2
:102A80000128F9D184F83E200FE094F83F00012896
:102A9000F2D184F83F2008E094F840000128EBD1FF
:102AA00084F8402001E084F841200122206801F0F0
:102AB000D3F80F492068884203D1426C42F40042A7
:102AC00042642068884208D0B0F1804F05D009499F
:102AD000884202D00849884204D1816801F0070188
:102AE000062903D0016841F001010160002010BDFA
:102AF000002C014000040040000800400068064B24
:102B00000121064A984201D111707047B0F1804FFF
:102B1000FBD1517070470000000800400400002005
:102B20007047704770470000F8B5016804460868B0
:102B3000CA684B6910F00F0F4FF0000559D003F031
:102B4000010602F49077374365D0C10705D0D1055F
:102B500003D5616C41F001016164410705D5D907D6
:102B600003D0616C41F002016164810705D5D9078A
:102B700003D0616C41F004016164010707D502F0E4
:102B80002001314303D0616C41F008016164616C44
:102B900000293AD0800604D5900602D5204601F0DF
:102BA0006FF920684069616CC0F38010090700D498
:102BB00060B3204601F03DF920684069400621D508
:102BC0002068143050E8001F21F0400140E8001256
:102BD000002AF5D1E06BA8B16D494163E06BFEF7C7
:102BE00053FC002811D0E06B416B01B0BDE8F04010
:102BF000084783060FD593060DD52046BDE8F8405B
:102C000001F03EB92046FFF78DFFF8BD2046FFF7E3
:102C100089FF6564F8BD266B2023012E7CD1C60692
:102C20007AD5D60678D508684868009048694FF08C
:102C30000206400640D5E16B086840680004000CBD
:102C4000E8D0A28D8242E5D9E085886920282DD080
:102C500020680C3050E8001F21F4807140E8001219
:102C6000002AF5D12068143050E8001F21F001013E
:102C700040E80012002AF5D12068143050E8001F07
:102C800021F0400140E80012002AF5D184F84230DA
:102C9000256320680C3050E8001F21F0100140E847
:102CA0000012002AF5D1E06BFEF7CBFB6663A08D26
:102CB000E18D401A81B22AE0A08DE18D401A81B2E7
:102CC000E08D0028A6D00029A4D022680C3252E85A
:102CD000000F20F4907042E80007002FF5D1206823
:102CE000143050E8002F22F0010240E80027002FA6
:102CF000F5D184F84230256320680C3050E8002F6D
:102D000022F0100240E80023002BF5D16663204634
:102D1000FFF707FFF8BDFFE705062BD5150629D5F8
:102D200094F841002128F5D1A068B0F5805F01D169
:102D30002069B0B1206A411C216221680078486096
:102D4000E08C401E0004000CE084E3D12068C168E0
:102D500021F08001C1602068C16841F04001C1607C
:102D6000D8E7206A0088C0F308004860206A801C09
:102D70002062E5E74006CDD55006CBD5CA6820468F
:102D800022F04002CA6084F8413000F0DBF8C1E76D
:102D9000233E000870B5040004D094F841000025DB
:102DA00010B106E0012070BD84F84050204600F0CC
:102DB00023F8242084F841002068C16821F40051E0
:102DC000C160204601F0BEF82068016921F49041FD
:102DD00001612068416921F02A0141612068C168D0
:102DE00041F40051C1606564202084F8410084F8FA
:102DF00042006563002070BD70B586B000250646B0
:102E000000950195029503950068224988423ED1BC
:102E10002149886940F480408861886900F48040D5
:102E20000490886940F00400886188691B4C00F0B8
:102E300004000490481500900220019003200390A4
:102E400069462046FEF708FD2015CDE900056946D4
:102E500020460295FEF700FD124C1148C4E900051A
:102E60008020C4E9025025616561A5612046E561C5
:102E7000FEF700FC08B1FDF73FFFF46300221146A6
:102E800025206662FFF76CF82520FFF75BF806B097
:102E900070BD0000003801400010024000080140F1
:102EA000580002406C04002070472DE9F8430446A6
:102EB00090F841001F4616460D46202802D00220F9
:102EC000BDE8F8837DB176B100206064212084F8EC
:102ED0004100FEF7BFFDA6848046E684A068B0F5F9
:102EE000805F02D003E00120EAE7206910B12E469E
:102EF00000250EE000260CE08021204601F07EF83F
:102F0000A0B9AEB116F8010B21684860E08C401EF4
:102F1000E084E08C43464FF0000200970028EBD19C
:102F20004FF04001204601F069F830B10320C7E7B7
:102F300035F8020BC0F30800E6E7202084F84100D2
:102F40000020BDE77047FEE701684A69D243520599
:102F50000FD46FF480624A61002140F8301F2022B4
:102F600042738173026942F004020261017301201D
:102F700070470020704700002DE9F84F04460068B4
:102F800089460B9D01689846174641F480610160AF
:102F90002068016841F48071016000954FF0011BC9
:102FA0000022594620460A9B00F064F84FF4007A4C
:102FB00040B120680068C00501D5C4F840A00320D6
:102FC000BDE8F88F216809F0FE0008612B4628490A
:102FD00020460A9A00F096F8F0BB206841698069A3
:102FE00000902A4620460A9900F022F940B1206C50
:102FF00004283AD12068016841F40071016034E08E
:10300000FEB2B8F1010F09D02168380A08612A46DA
:1030100020460A9900F00CF90028E8D120680661E2
:103020002A4620460A9900F003F90028DFD12068DB
:10303000016841F4807101600095002259462046E4
:103040000A9B00F017F80028B3D1216809F0FF00AF
:1030500040F00100086100E007E02B4604492046EB
:103060000A9A00F04FF80028AAD00120A8E7000033
:10307000020001002DE9F047984617460D46044628
:10308000C1F30746DDF820902AE000BFB8F1FF3F0A
:1030900026D0FEF7DFFCA0EB0901414502D8B8F1CC
:1030A000000F1DD12068012E16D0806925EA00008E
:1030B0000004000C12D00020B84211D1002044F8C6
:1030C000300F20216173A073216941F0200121613B
:1030D00020730120BDE8F0874069E7E70120EBE7B6
:1030E0002068012E0AD0806925EA00000004000C47
:1030F00006D00020B842C9D00020EBE74069F3E7D2
:103100000120F7E72DE9F047984616460D4604469C
:103110004FF000094FF0200AC1F3074723E0206871
:103120004069C043400515D42068016841F400712E
:10313000016021686FF480604861C4F8309084F8C1
:103140003DA084F83E90216C41F00401216484F894
:103150003C9021E0701C06D0FEF77CFCA0EB080040
:10316000B04203D816B1012F1FD021E02068012FF3
:1031700015D0806925EA00000004000C18D000BFBB
:1031800044F8309F84F80DA084F80E90216941F036
:103190002001216184F80C900120BDE8F08740698E
:1031A00025EA00000004000CEAD12068406901E033
:1031B0002068806925EA00000004000CAFD1ECE72C
:1031C0002DE9F041002590460E460446202728E0D0
:1031D0004069C043C0060CD454F8301B6FF0100097
:1031E000486144F810596777A577206A20622577EF
:1031F00014E0FEF72FFCA0EB0800B04200D886B91F
:1032000020684069C04340060BD544F8305F6773BF
:10321000A573206940F02000206125730120BDE8DE
:10322000F08120684169C9434906D1D40020F6E7FE
:1032300070B516460D4604461EE02046FFF784FE94
:1032400008B1012070BD681C16D0FEF703FC801B7E
:10325000A84200D885B920684069C04300060BD554
:10326000002044F8300F20216173A073216941F0E0
:10327000200121612073E4E720684069C043000613
:10328000DBD4002070BDC0E9001200214FF07E5257
:10329000C0E90212016170472DE9F04188460446F9
:1032A0000168D4E90250FCF771FF07466168FCF73A
:1032B0006DFF01463846FCF7F3FF064620612946BC
:1032C0004046FCF7B5FF3146FCF7B8FF2946FCF74E
:1032D0005DFF0546A06031464FF07E50FCF7A8FF29
:1032E0003946FCF7ABFFE0602846BDE8F0810000FE
:1032F0000F4810B50D4901600621416000214FF4CF
:1033000080328160C0E90312520142610176417648
:1033100081760122C27601774177FDF77DFF002893
:1033200003D0BDE81040FDF7E7BC10BD00640040CD
:10333000D0020020094808B5416941F0010141610E
:103340004069002200F00100009011460F20FEF7B6
:1033500007FEBDE808400F20FEF7F4BD0010024054
:103360002DE9F04385B0002425480094019402948F
:103370000394816941F010018161816901F01001BC
:103380000491816941F020018161816901F020018E
:103390000491816941F004018161816901F00401B6
:1033A0000491816941F0080181618069DFF85480EE
:1033B00000F008004FF400550490002229464046D2
:1033C000FEF742FBDFF8409040F604070122394641
:1033D0004846FEF739FB0095022601250396CDE904
:1033E000015469464046FEF737FA00970396CDE947
:1033F000015469464846FEF72FFA05B0BDE8F08350
:103400000010024000100140000C01400D4810B5B2
:103410000B4901600C49416000214FF480428160FA
:10342000C0E9031241618161C1610162FEF718FBCD
:10343000002803D0BDE81040FDF75EBC10BD0000C1
:1034400000540040F8020020801A060010B586B033
:1034500000241748009401940294039404944FF0BC
:1034600080410594016041F61F41C0E9011440F21A
:10347000E731C0E9031480218161FFF76BF808B1DF
:10348000FDF73AFC4FF48050009069460848FFF77A
:10349000F7F808B1FDF730FC049404A9044805943A
:1034A000FFF724F8002801D0FDF726FC06B010BD78
:1034B0004C03002030B58DB0002407940894099483
:1034C0000A940B941C2168460C94FCF754FE274880
:1034D00025494FF4E165C0E9001420210461C0E9E9
:1034E000021580218161FFF735F808B1FDF704FC72
:1034F0004FF48050079007A91C48FFF7C1F808B1A6
:10350000FDF7FAFB1948FFF77CFA08B1FDF7F4FB69
:103510000B940BA915480C94FEF7E8FF08B1FDF7D2
:10352000EBFB60200090CDE90154042269460F486E
:103530000494FFF700FA08B1FDF7DEFB08226946A4
:103540000A48FFF7F8F908B1FDF7D6FB0C226946E7
:103550000648FFF7F0F908B1FDF7CEFB0348FFF787
:10356000B1F90DB030BD000000040040940300200C
:1035700010B586B000241748009401940294039477
:1035800004941349059401604721C0E901144FF4E4
:10359000FA71C0E9031480218161FEF7DBFF08B1F5
:1035A000FDF7AAFB4FF48050009069460948FFF7E9
:1035B00067F808B1FDF7A0FB049404A90548059439
:1035C000FEF794FF002801D0FDF796FB06B010BD72
:1035D00000080040DC0300200C4810B50A490160D7
:1035E0004FF47A314160002181600C22C160C0E952
:1035F00004128161C161FFF7CDFB002803D0BDE853
:103600001040FDF779BB10BD0038014024040020B4
:10361000FEE7442200F59A70FCF794BD4422AC30DA
:10362000FCF790BD28223030FCF78CBD70B5044605
:103630000D463D225830FCF785FD15F83D0F04F886
:10364000950F68786070A878A070E878E0702879A5
:10365000207168796071A879A071E879E071287AA1
:103660002072687A60720B350B3495E8070084E8A5
:10367000070070BD10B500F041F90028124804D0D1
:10368000FDF750FC014611A019E0FDF7A7FE58B167
:103690000D48FDF747FC02460B4890F82010BDE8A6
:1036A000104014A000F0F4BC02210748FDF7B0FB65
:1036B000002808D00448FDF735FC014618A0BDE8F5
:1036C000104000F0E5BC10BDD002002043414E2068
:1036D00066696C74657220636F6E666967206661E7
:1036E000696C65642C206572723D30782530386CC9
:1036F000580D0A0043414E20737461727420666154
:10370000696C65642C2073746174653D25752C208B
:103710006572723D30782530386C580D0A00000013
:1037200043414E206163746976617465206E6F74E5
:10373000696669636174696F6E206661696C65644E
:103740002C206572723D30782530386C580D0A0097
:1037500070B55C4D2878002870D05B48012602685F
:10376000A2F54070013823D0A2F54070023821D074
:10377000564CA2F5407003381FD0E81CB2F5417FCB
:10378000017850D02046A2F54073007E053B41D021
:10379000A2F54073063B52D0A2F54073073B60D0C0
:1037A000B2F5427F75D0A2F5407009386DD06DE05A
:1037B0006E706BE0FEF706FC68E004214448FEF7FB
:1037C0003BF9D5F8030010F1FF4F02D34149FCF754
:1037D000DDFCFCF770FF4FF080423F4BFCF751FEE1
:1037E00000223E4BFCF7BFFEFCF778FF217E31B193
:1037F000012906D0022907D0032908D008E0E0619A
:1038000006E0C4F8B80003E0C4F8FC0000E0E062A1
:10381000AE703BE0D5F80310012806D0022807D08F
:10382000032808D032E0217630E0C4F8AC102DE057
:10383000C4F8F0102AE0C4F8341127E028E0D5F8E5
:103840000310012804D0022805D0032806D01DE06B
:10385000C4F8B0101AE0C4F8F41017E0C4F8381136
:1038600014E0D5F80310012804D0022805D003285D
:1038700006D00BE0C4F8B41008E0C4F8F81005E076
:10388000C4F83C1102E004E0FFE721610020287049
:1038900070BD4FF0FF32012805D0022808D0032860
:1038A000F4D151B10AE001B90122C4F8C820EDE712
:1038B00001B90122C4F80C21E8E70122C4F8502123
:1038C000E4E700002D000020C40400205400002084
:1038D000000C01400000B443FB2109400080664019
:1038E00010B50B46024600210348FDF71DFB0028DA
:1038F00000D0012010BD0000D002002000B58BB028
:10390000002005904FF4C042CDE90020012108912C
:103910004FF47C42CDE90220CDE9060104900D2050
:10392000099069460248FDF785FA0BB000BD00001A
:10393000D0020020FEE770472DE9F0478946044693
:10394000FDF710F90646414F206B88B1301AFCF79D
:1039500099FE3F49FCF772FC0546A0F50000B0F166
:103960007A5F00D93D4626633A4E307810B10DE0BB
:10397000394DF8E74846E168FCF75AFC3749884278
:1039800004DA3749884201D201203070206CB0F54A
:10399000000F01DA334820642946FCF7F7FB0146A3
:1039A0002846FCF77DFC804601464FF07E50FCF730
:1039B0003FFCE16BFCF742FC074649464046FCF7FA
:1039C0003DFC3946FCF7E2FB0146E063E068FCF7AA
:1039D0002FFC074639462069FCF7D8FB20613846A2
:1039E0006169FCF725FC2946FCF75AFC01461E4894
:1039F000FFF752FC676105462062E069FCF739FE7B
:103A000081462846A168FCF719FC80466168206958
:103A1000FCF714FC054638462168FCF70FFC2946E4
:103A2000FCF7B4FB4146FCF7B1FB4946FCF706FC4A
:103A3000A0613178002906D10C49884202DA0C498C
:103A4000884200D3A161BDE8F08700006F12833A7D
:103A5000BD3786352C0000206F12033BCDCCCC3D0A
:103A6000CDCCCCBD899BD03AB00400200000C04032
:103A70000000C0C010B50446007E01280AD002280C
:103A800010D0032812D1E16A04F59A70BDE8104005
:103A9000FFF752BFE168A06BFCF7CAFB014604F1D7
:103AA000AC00F3E704F1F000A16CEFE710BD704744
:103AB00070B50446FCF7F0FF054620601448017815
:103AC00079B128466168FCF7B3FB124A20F0004147
:103AD00091420DDD2169B0F5000F06DB4FF0FF309C
:103AE00004E001216560017070BD0120084420617F
:103AF00065602069FCF7BDFD0121FCF70FFC06495C
:103B0000FCF79CFB2946FCF741FBA06070BD000060
:103B1000000000207CD9A040DB0F49402DE9F04196
:103B20000446FFF7C5FFFDF71DF8FCF7A2FD206274
:103B30000646616AFCF77CFB0A49FCF77FFB0546F9
:103B4000B0F5000F00DA084DD4E902713846FCF7F1
:103B50006FFB2946FCF7A4FBE7606662A061BDE845
:103B6000F0810000BD3786356F12833AFFF7D6BF6C
:103B7000FEF790B930B58FB028216846FCF7FBFA04
:103B800014210AA8FCF7F7FA01210804CDE9001076
:103B90000024029402250491CDE907504FF4E0106F
:103BA00009906846FEF7FCFA08B172B6FEE70F20EE
:103BB000CDE90A054FF48060CDE90C4002210AA846
:103BC0000E94FEF711FA002801D072B6FEE70FB08E
:103BD00030BD70470148FEF7C2BD00004C03002015
:103BE0000148FEF7BCBD0000DC030020F0B5026810
:103BF000164B174C174D4FF08047984205D0B842EE
:103C000003D0A04201D0A84203D122F070064A6836
:103C10003243984205D0B84203D0A04201D0A84216
:103C200003D122F44074CA6822434C6922F0800216
:103C3000224302608A68C2620A688262984201D1A5
:103C40000969016301214161F0BD0000002C0140C0
:103C5000000400400008004010B501F01F030121DE
:103C6000046A99408C430462016A9A4011430162DC
:103C700010BD10B5846842EA032224F47F440A434D
:103C80002243826010BD826822F070020A4342F033
:103C9000070181607047000030B5036A026A22F0B4
:103CA000010202624268846924F073050C682C43A7
:103CB00023F002058B682B430A4DA8420BD123F059
:103CC0000805CB6822F440722B434D6923F00403AE
:103CD00015438A692A4342608461496841630362EB
:103CE00030BD0000002C014030B5026A036A23F0A9
:103CF00010030362436884690D6824F4E64444EACF
:103D000005248D6822F0200242EA05120B4DA842DC
:103D10000ED1CD6822F0800242EA05124D6923F4EB
:103D2000406343EA85038D6922F0400243EA85033C
:103D30004360846149688163026230BD002C0140A8
:103D400030B5036A026A22F4807202624268C46972
:103D500023F4007324F073050C682C438D6843EA48
:103D600005230C4DA8420ED1CD6823F4006343EA2D
:103D700005234D6922F4405242EA05128D6923F46D
:103D8000806342EA05124260C4614968C16303620C
:103D900030BD0000002C014030B5046A026A22F4F4
:103DA000805202624268C3690D6823F4E64343EA25
:103DB00005238D6824F4005444EA0534064DA842D6
:103DC00004D14D6922F4804242EA85124260C36107
:103DD00049680164046230BD002C014010B5036ADB
:103DE000046A24F001040462846924F0F00444EAC3
:103DF000021423F00A020A438461026210BD10B566
:103E0000036A046A24F010040462846923F0A003A6
:103E100024F4704444EA023243EA011182610162EF
:103E200010BD10B5406A0021C185C184FEF77AFE3D
:103E300010BD01680C3151E8002F22F4907241E866
:103E40000023002BF5D10168143151E8002F22F036
:103E5000010241E80023002BF5D1016B012909D1B2
:103E600001680C3151E8002F22F0100241E80023D4
:103E7000002BF5D1202180F842100021016370470A
:103E800008B590F84210222901D0022008BD8268AE
:103E90004FF480539A4201D1016921B1816A9A425B
:103EA0001BD04AB10AE00268816A5268C2F3080274
:103EB0000A80816A891C08E0026972B1026852684E
:103EC00002F07F020A70816A491C8162C18D491E1D
:103ED0000904090CC18503D01BE002685268F1E7B0
:103EE0000168CA6822F02002CA600168CA6822F428
:103EF0008072CA6001684A6922F001024A61202189
:103F000080F8421000214163026B012A03D0FEF7C2
:103F1000CBFF002008BD016301680C3151E8002F80
:103F200022F0100241E80023002BF5D101680A6855
:103F3000D20602D50A6849680091818DFEF7F1FD2D
:103F4000E7E7000070B5044600680169E26821F403
:103F50004051114301612169A06808436169084328
:103F60002168CA6841F20C639A430243CA60206820
:103F70004169A26921F44071114341611E492068E1
:103F8000884202D1FEF7D6F801E0FEF7C3F800EB55
:103F9000C00101EB0012606864218000B2FBF0F305
:103FA000B3FBF1F36FF018067343B2FBF0F5B2FB0D
:103FB000F0F605EB8305322303EB0515B5FBF1F5B0
:103FC000B6FBF1F605F0F00505EB0615B2FBF0F6D1
:103FD000B2FBF0F0B0FBF1F06FF01802504306EBCB
:103FE000800003EB0010B0FBF1F0216800F00F003F
:103FF0002844886070BD0000003801402DE9F04180
:10400000984617460E460446069D27E0681C25D0B4
:104010002DB1FDF71FFDA0EB0800A8421ED92068B6
:104020000C3050E8001F21F4D07140E80012002A43
:10403000F5D12068143050E8001F21F0010140E85C
:104040000012002AF5D1202084F8410084F84200B3
:10405000002084F840000320BDE8F081206800685B
:1040600036EA000004D00020B842CFD00020F3E7A9
:104070000120F9E70148FEF757BD000024040020A5
:104080000148FCF7CBBF0000D0020020FEE7000093
:104090000FB4054B10B503A9044A029800F088FB41
:1040A00010BC5DF814FB0000A54E00084C00002079
:1040B000490050EAC12018BF04204A0D18BF40F043
:1040C000010040F2FF72B2EB515F08BF40F0020006
:1040D000012808BF052070470907090E002804DBE6
:1040E00000F1E02080F80014704700F00F0000F1AC
:1040F000E02080F8141D70472DE9F74F144694B066
:104100000021C4E902111599079121F00045C94920
:104110008D4206DC1599C4E9000117B00020BDE806
:10412000F08FC549DFF814A3A9423CDD0799C44EBE
:104130000029C44FC44A1599534619DDFCF79BF971
:10414000554506D0C14AC24BFCF795F9C4E90001B8
:104150000AE04FF0D352BE4BFCF78DF932463B4696
:10416000FCF789F9C4E9000117B00120BDE8F08F20
:10417000FCF7E0F8554506D0B44AB54BFCF7DAF841
:10418000C4E900010AE04FF0D352B14BFCF7D2F87A
:1041900032463B46FCF7CEF8C4E9000117B04FF0B9
:1041A000FF30BDE8F08FAB49A942159978DB21F0CB
:1041B000004183468846A84AA84BFCF762F90022D2
:1041C000A74BFCF7B7F8FCF747FC0990FCF726FC77
:1041D00006460F469C4A5346FCF753F943465A4657
:1041E000FCF74CF980468A46984A994B3046394646
:1041F000FCF747F92A0D01250B9242465346FCF77E
:104200003DF9032DC4E9000139D00B98C1F30A51DF
:10421000401A05EB45111139814230DA9148C34605
:10422000784400EB0510CDF80CA00C90D0E90023E9
:1042300030463946FCF725F902460B4604910690B4
:1042400058460399FCF717F980468A4602460B4602
:1042500058460399FCF70FF9049B069AFCF70BF9F3
:1042600083460C9803913946D0E902233046FCF787
:1042700008F95A46039BFCF7FEF86D1CBDE707984A
:104280000028A2BF099817B0BDE8F08F616881F0DF
:1042900000416160099817B04042BDE8F08FFFE728
:1042A00084461598C1F31301C0F30A50A0F2F5300B
:1042B0004FEA601800F01F06C6F12000139000209E
:1042C0000690079041F4801E05206D4676B1664A3F
:1042D00008EB00017A4452F8213002EB8101B3402F
:1042E0004A68139922FA01F1194305E05F4908EB86
:1042F0000002794451F82210A1FB0E27A1FB0C13F8
:104300001A449A4234BF0123002303EB070A05EB4A
:104310008003D3E901B70F448F4234BF012100214C
:1043200093448B4411B1934502D903E0934501D2E4
:10433000012100E00021C3E901B7514445F82010F4
:10434000011EA0F10100C1DC0298059F00F10050A0
:10435000800F12900298DDE903568000FCF75EFBA7
:10436000834628460D91FCF76AFB6FF01D02FCF7AF
:1043700069F9CDE90E013046FCF761FB6FF03D02B3
:10438000FCF760F980468A463846FCF758FB6FF028
:104390005D02FCF757F90746424653461191FBF779
:1043A000C9FFDDE90E23FBF7C5FF5A460D9BFBF75E
:1043B000C1FF00250E465A4628460D9BFCF75BF8C8
:1043C000DDE90E23FCF757F842465346FCF753F855
:1043D0003A46119BFCF752F8DFF898A0244A53465E
:1043E000FCF74FF807468846234A244B31462846B7
:1043F000FCF747F83A464346FBF79CFF07468846DA
:104400004FF0A842534631462846FCF73AF83A4660
:104410004346FBF78FFF159A12F0004F04D0129A13
:1044200081F0004152421292C4E90001129817B083
:10443000BDE8F08FFB21E93F7CD90240FB21F93F29
:104440007370032E8A19A33B000040543163621A33
:1044500061B4D03DFB21394183C8C96D305FE43F71
:104460000000E03F44130000C0120000A212000050
:10447000182D4454FB21F93D3326A611460B113C5F
:104480002DE9FF4D21F0004807460C46B8F1795F51
:1044900008DAFCF7E1FA002801BF0020324904B035
:1044A000BDE8F08D3A46234610461946FBF7E9FF72
:1044B000054602462D480E460B460621784400F07C
:1044C0005DF82A463346FBF7DCFFDDE9022382462E
:1044D0008B4638462146FBF7D4FF04460F4652462A
:1044E0005B4628463146FBF7CCFF22463B46FBF7AE
:1044F000C2FF07468A464FF0FF3228463146FCF796
:10450000A1F81B4A90450ADA3A465346FBF7B3FF37
:1045100004B00022BDE8F04D134BFBF7AFBF154AC6
:104520004245A8BFA8F500154FF00004B8BF124DD2
:1045300022462B46FBF79FFF0646884622462B461F
:1045400000200949FBF797FF04460D463A465346BB
:1045500030464146FBF78FFF04B022462B46BDE8AC
:10456000F04DFBF78BBF00000000F03F781000001B
:104570003333D33F0000E93F0000D23F2DE9F04143
:104580004F1E00EBC7010446D1E9000115461E4647
:1045900037F006020DD02A463346FBF772FF7F1E26
:1045A00004EBC703D3E90023FBF7C4FE37F0060290
:1045B000F1D1022F25D0042F13D0062F18BFBDE84C
:1045C000F0812A463346FBF75CFFD4E90A23FBF768
:1045D000B1FE2A463346FBF754FFD4E90823FBF724
:1045E000A9FE2A463346FBF74CFFD4E90623FBF726
:1045F000A1FE2A463346FBF744FFD4E90423FBF728
:1046000099FE2A463346FBF73CFFD4E90223FBF729
:1046100091FE2A463346FBF734FFD4E90023BDE878
:10462000F041FBF787BE00002DE9FF4D054621F064
:10463000004084B00C46B0F1795F0BDA2846FFF7F2
:1046400037FD042808BF00F06FF8284608B021465F
:10465000BDE8F08D2A460B461046FBF712FF0646D2
:104660000F462A462346FBF70CFF804626488A461B
:1046700032463B4605217844FFF780FF8346109879
:10468000029160B3214A224B40465146FBF7F9FEA6
:10469000CDE900015A4640465146029BFBF7F1FE28
:1046A00082468846DDE906014FF0FF32FBF7CAFF7C
:1046B00052464346FBF7DFFE32463B46FBF7E1FE40
:1046C000DDE90623FBF7D7FEDDE90023FBF7D3FE88
:1046D00008B02A462346BDE8F04DFBF7CFBE0B4697
:1046E0005A4630463946FBF7CCFE084A084BFBF7E2
:1046F00021FE42465346FBF7C4FE08B02A46234635
:10470000BDE8F04DFBF716BEB60F000049555555F4
:104710005555C5BF0122FBF795BF00221346104631
:104720001146FBF720BF0000024A00201107FBF7EB
:1047300089BF000001FDFFFF02E008C8121F08C189
:10474000002AFAD170477047002001E001C1121F12
:10475000002AFBD170470000014908607047000043
:104760005000002010B50446D4E904014843FBF78B
:1047700080FF216BFBF762FDE168FBF759FDBDE8A7
:10478000104000F001B8000070B5074C074D02E082
:104790002146FBF7FBFCA842FAD201E0FBF748FDFB
:1047A00021468842FADA70BDDB0FC94000008080E4
:1047B0002DE9FF4F8DB00F460546002606E025285F
:1047C0000BD0DDE90F1290476D1C761C287800286D
:1047D000F5D111B03046BDE8F08F0024A246A146C5
:1047E0000122EC4900E0044315F8013F203B02FAA6
:1047F00003F00842F7D128782A2810D06FF02F0252
:104800002878A0F13001092914D80AEB8A0102EBBB
:10481000410144F0020400EB010A6D1CF0E701CFF6
:104820005FEA000A03D544F40054CAF1000A44F0D8
:1048300002046D1C28782E2817D115F8010F44F0BA
:1048400004042A280ED06FF02F022878A0F130013E
:1048500009290AD809EB890102EB410100EB0109A2
:104860006D1CF2E757F8049B6D1C28786C280FD05C
:1048700006DC4C2817D068280DD06A2814D104E033
:10488000742810D07A280FD10DE044F400140AE007
:1048900044F4801401E044F440146978814202D168
:1048A00004F580146D1C6D1C2A786E2A1FD00CDC58
:1048B000632A31D004DC002A8BD0582A11D1A3E01E
:1048C000642A68D0692A0CD165E0732A2ED004DCF2
:1048D0006F2A73D0702A04D19BE0752A6FD0782A92
:1048E0006ED01046DDE90F129047761C50E1C4F3FC
:1048F0000250022806D0032809D0042801CF09D08D
:10490000066045E101CFF117C0E9006140E101CF48
:1049100006803DE106703BE117F8040B8DF80000BE
:1049200000208DF80100EB46012003E057F804BB9E
:104930004FF0FF3061074FF0000102D40DE008F1A5
:104940000101884649450FDA8045F8DB1BF808105D
:104950000029F4D108E008F1010188468142FADB20
:104960001BF808100029F6D1DDE90F23AAEB080097
:104970008146214600F036F9304400EB080604E099
:10498000DDE90F121BF8010B9047B8F10108F7D2CF
:1049900021464846F7E00A21C4F302534FF0000BCA
:1049A0000891022B04D001CFC117032B09D00AE0D4
:1049B000FF1D27F00707F7E8020108E032E01FE0DB
:1049C00020E000B2C117042B01D140B2C117031E71
:1049D00071F1000307DA4FF0000CD0EB0C006CEB28
:1049E00001012D2302E0230504D52B238DF824306B
:1049F000012303E0E30701D02023F7E7984658E0BE
:104A00000A2110E010210EE010204FF0000B08905A
:104A10000CE010214FF0000B44F004044FF00809A3
:104A2000089103E008214FF0000B0891C4F30253F2
:104A3000022B04D001CF0021032B06D006E0FF1D7E
:104A400027F00707F7E8020103E080B2042B00D14A
:104A5000C0B24FF0000823072BD5702A07D0DDF82D
:104A600020C08CF0100C5CEA0B0C05D00EE040234B
:104A70008DF82430012308E050EA010306D03023EA
:104A80008DF824308DF8252002239846DDF820C0CB
:104A90008CF0080C5CEA0B0C0BD150EA010301D13D
:104AA000630706D530238DF824304FF00108A9F1B3
:104AB0000109582A04D038A20B9208AA0A920BE0E6
:104AC0003AA2F9E75B46089AFBF72EFE0B9B9B5C2C
:104AD0000A9A521E0A92137050EA0102F2D10A9801
:104AE000ADEB000000F1200B600702D524F4803408
:104AF00001E04FF00109D94502DDA9EB0B0000E010
:104B0000002000EB0B0141440890AAEB010AE003EE
:104B100006D4DDE90F232146504600F063F8064431
:104B20004FF0000908E009A911F80900DDE90F12AA
:104B3000904709F10109761CC145F4DBE0030CD56F
:104B4000DDE90F232146504600F04CF8064404E00E
:104B5000DDE90F1230209047761C0899481E089016
:104B60000029F5DC08E00A980A990078491C0A91A6
:104B7000DDE90F129047761CBBF10001ABF1010B90
:104B8000F1DC21465046DDE90F2300F019F8064418
:104B90006D1C1BE6092801003031323334353637BD
:104BA0003839616263646566000000003031323379
:104BB0003435363738394142434445460000000019
:104BC0002DE9F041044600251E461746880404D40A
:104BD00005E039462020B0476D1C641EF9D52846F3
:104BE000BDE8F0812DE9F041044600251E469046BF
:104BF000C80301D5302700E02027880404D505E04C
:104C000041463846B0476D1C641EF9D52846BDE8BC
:104C1000F081000000B5244B21F0004287B09A4299
:104C2000DCBF0022134629DD204B9A4208D140B94F
:104C30004FF00100FFF790FDFFF76FFD07B000BDDB
:104C400003DBFFF767FD07B000BD02AAFFF754FAC8
:104C500010F0030104BF0DF1080C9CE80F000DD00B
:104C6000012001290ED0022914D00DF1080C00906A
:104C70009CE80F00FFF7D8FC07B000BDFFF700FC71
:104C800007B000BD0DF1080C00909CE80F00FFF785
:104C9000CBFC05E00DF1080C9CE80F00FFF7F0FBE2
:104CA00007B081F0004100BDFB21E93F0000F07F2B
:104CB000F0B505464FF6FF742046002241F221066A
:104CC00011E0AB5C80EA03200023070403D586EAE9
:104CD000400080B201E004EA40005B1CDBB2082B1C
:104CE000F3D3521C92B28A42EBD3F0BD4FF07C5208
:104CF00001490248FEF7C7BA0AD7233CB004002096
:104D000030B585B0002405460094019402940394C4
:104D10000494FCF78DFD01200194CDE90350694610
:104D200001A8FCF7E7FC0446FCF738FD14B900982D
:104D3000401C00D0012005B030BD2DE9F0471746DA
:104D4000884681460026FCF773FD00241CE018F815
:104D50000400611CB94205D208EB0401497840EA1D
:104D6000012501E040F47F452A4600234946012001
:104D7000FCF71EFD08B1012608E0B9F80000A842C2
:104D8000F9D109F10209A41CBC42E0D3FCF706FDED
:104D90003046BDE8F0872DE9F04114461D46064631
:104DA0000F46FBF7F8FD00F07040B0F1004F0FD058
:104DB000201C18BF0120284320F00040C0F17F6074
:104DC00000F1E040C00F02BF20462946BDE8F08157
:104DD00030463946BDE8F08170B50446D0F8A010E1
:104DE00058300546FDF73CFE2846D4F8A410FDF7E0
:104DF00037FE2846D4F8A810FDF732FE6420FCF7F1
:104E000067FCE06810F0FF4F2BD11648164E0025C6
:104E100020623146A068FBF743FAE169FBF7B6F977
:104E2000E061204600F03AFA0A20FCF751FC6D1CC4
:104E3000642DEEDB4FF4FA752846FCF749FC04F1CB
:104E40003000FEF793FE2046FFF78CFCE06028461A
:104E5000FCF73EFC0020E0612046BDE8704000F019
:104E60001DBA70BDE4CB96400000C84210B50446A0
:104E70003030FEF77BFE2046FFF774FC2062207E78
:104E8000012806D0022807D0032808D1D4F84C0105
:104E900004E0D4F8C40001E0D4F80801E06110BDDA
:104EA00000F0FCB913B54FF47A7301226946024849
:104EB000FDF7FBFF00981CBD24040020014840784A
:104EC000704700002D0000200148807870470000E6
:104ED0002D00002008B5FCF7E5FFFEF74BFEFEF7BE
:104EE0003FFAFEF727FAFEF791FAFEF7E3FAFEF72C
:104EF00073FBFEF73DFBFEF7A9FAFEF7F9F9824CCA
:104F00008048824F2060C4E9010707204FF0FF3638
:104F1000C4E9040600257E48E561A06201202076F0
:104F20007C48E560E0623D227B4904F5BC70FBF7FC
:104F300009F9794911F83D2F04F5BC7000F83D2FAF
:104F40004A7842708A788270CA78C2700A7902718F
:104F50004A7942718A798271CA79C2710A7A00F8F3
:104F6000082F497A4170042140F8031F082141604D
:104F70000C21816004F50E706849C6614FF07E52C5
:104F80000160C0E90152664AC2604438654A076060
:104F9000C661C0E90152C5606348C4F8F0006348C7
:104FA000C4F80C61C4F8F400C4E93E5104F5FA7188
:104FB0002046FEF733FB04F50E712046FEF729FB71
:104FC00004F5E6712046FEF72DFB04F5BC71204682
:104FD000FEF72CFBFBF7ECFDFEF74CFBFFF786FE24
:104FE000FBF710FE0095FBF733FE514E98B3FBF72D
:104FF00003FE04282FD104216846FBF72FFE50B38F
:10500000042130460095FCF717FD6420FCF760FB97
:1050100004213046FCF710FD6420FCF759FB042105
:105020003046FCF709FD6420FCF752FB04213046B2
:10503000FCF702FD6420FCF74BFB04213046FCF733
:10504000FBFC6420FCF744FB04213046FCF7F4FC35
:105050006420FCF73DFB0098E060FBF759FD074634
:1050600008E000BFFBF754FD07460022042130464C
:10507000FCF7EAFCFF2FF5D0012204213046FCF7B3
:10508000E3FC4FF40067002239463046FCF7DCFCB5
:1050900002E000BFFEF75CFBFFF710FF0028F9D02D
:1050A000012239463046FCF7CFFC1748E668FFF787
:1050B00093FE16F0FF4F08D1E06810F0FF4F04D0C8
:1050C000114804210C30FBF7DFFD1A48FDF7ACFA5C
:1050D000194E00BFFEF73CFBE56130780028F9D09F
:1050E000FFF7F2FE0028F5D07068401C706006489B
:1050F000FEF7C0FC0448FFF7B9FE0348FFF7D0FEF7
:105100003570E7E7000040415400002000004040B7
:105110000000C842C3F5C83F94030020000070415E
:10512000C3F54840CDCCCC3DCDCC4C3E0AD7233C3A
:10513000000C0140DC030020040000202DE9F047B2
:105140000446006817460A46814601469A461046BC
:10515000FBF7A6F84F4E4FF07E55B04201D300202A
:1051600002E0A84200DD2846804649463846FBF763
:1051700097F8B04201D3002002E0A84200DD2846A3
:10518000074649465046FBF78BF8B04201D3002052
:1051900002E0A84200DD28460646DFF8FC90A56D37
:1051A000D4F8A00058B3042831D008284946404616
:1051B00035D0FBF743F8FBF76AFA2864D4F8A4006B
:1051C00098B304283BD008284946384641D0FBF71D
:1051D00035F8FBF75CFAA16DC1F84000D4F8A800DF
:1051E000B0B3042845D00828494630464AD0FBF7DA
:1051F00025F8FBF74CFAA16D0864BDE8F087494635
:105200004046FBF71BF8FBF742FA6863D6E74946CE
:105210004046FBF713F8FBF73AFAA863CEE7FBF733
:105220000DF8FBF734FAE863C8E7FFE7494638466C
:10523000FBF704F8FBF72BFAA16D4863CEE749466C
:105240003846FAF7FBFFFBF722FAA16D8863C5E742
:1052500006E0FAF7F3FFFBF71AFAA16DC863BDE7A2
:1052600049463046FAF7EAFFFBF711FAA16D4863A9
:10527000C3E749463046FAF7E1FFFBF708FAA16DAC
:105280008863BAE7FAF7DAFFFBF701FAA16DC863A2
:10529000B3E70000000080800000E1442DE9F84FF2
:1052A00004464168C069FBF735FA606808D380F0AE
:1052B0000040E169FBF72EFA03D2606880F00040FD
:1052C000E061206AFBF7F7F900F0A8F80646E0690C
:1052D0000D4680F00040FBF7EEF932462B46FBF717
:1052E000D0F8FBF7FBF98346206AFBF7E4F9FFF7F8
:1052F00091FC06460D46E069FBF7DDF932462B4688
:10530000FBF7BFF8FBF7EAF905464FF0FF312068DD
:10531000FBF704F806465946FAF738FF0090304686
:10532000FBF7C9F9804689465846FBF7C4F982461F
:105330000F462846FBF7BFF905460E4600203649C2
:1053400000F0BCF82A463346FBF79BF852463B4632
:10535000FBF791F84FF0FF32FBF774F942464B46EA
:10536000FAF7E8FFFBF7BAF981464FF0FF31206802
:10537000FAF7D4FFFBF79FF90F4631462E468046D9
:105380000D460020244900F099F832462B46FBF7E1
:1053900078F806460D468BF00040FBF78CF9324654
:1053A0002B46FBF768F84FF0FF32FBF74BF942460C
:1053B0003B46FAF7BFFFFBF791F90646FBF77BF98F
:1053C00007460D464846FBF776F93A462B46FFF767
:1053D000E2FC07460D460098FBF76DF93A462B466E
:1053E000FFF7D9FCFBF77AF9054601460098FAF772
:1053F0001FFF804629464846FAF71AFF0746294606
:105400003046FAF715FF034601B03A4641462046BA
:10541000BDE8F04FFFF792BE0000084000B5254BF5
:1054200021F0004287B09A4203DC0022134600922A
:105430002BE0214B9A4208D140B94FF00100FFF711
:105440008BF9FFF76AF907B000BD03DBFFF762F9DC
:1054500007B000BD02AAFEF74FFE10F003014FF0A7
:1054600001000DD0012914D002291AD00DF1080C29
:105470009CE80F00FFF704F807B081F0004100BD81
:105480000DF1080C00909CE80F00FFF7CDF807B075
:1054900000BD0DF1080C9CE80F00FEF7F1FF07B00E
:1054A00000BD0DF1080C00909CE80F00FFF7BCF860
:1054B000E2E70000FB21E93F0000F07F2DE9F04129
:1054C00006460F46FBF716FA041E0D4618BF0120CC
:1054D000284320F00040C0F17F6000F1E040C00FA1
:1054E0000ED0301C18BF0120384320F00040C0F11E
:1054F0007F6000F1E040C00F04BF0120FFF72CF9EE
:1055000020462946BDE8F081010202030405060792
:1055100008090A0B0C0D0E0F10100000000000000F
:105520000000010203040607080900000000010250
:1055300003040000000000004C5555555555A53F8B
:105540007751C1166CC156BF9015CB19A001FA3E18
:10555000AD529C804F7E92BEC4B1B4BD9EEE213E42
:10556000D43888BEE9FAA8BD00004054FB21F93FB9
:105570003163621A61B4D03D0000601A61B4D03D5D
:105580007370032E8A19A33B0000002E8A19A33BD7
:10559000C14920259A837B390000000000000000EB
:1055A0006E83F9A22915444ED15727FCC0DD34F58E
:1055B000999562DB4190433CAB6351FE61C5BBDE14
:1055C0003A6E24B7E0D24D42EA2E49061C92D10928
:1055D0001CEB1DFE3EA729B1F53582E88444BB2EA5
:1055E00026709CE9417E5FB439D69139F4395383F2
:1055F0008B5F849C3B28F9BDFF97F81F0F9805DE51
:105600008B112FEF1F6D0A5ACF7E366DB709CB274E
:10561000663F464F2DEA5F9EC7BA27757BF1E5EBE3
:10562000F739073DEA92528AB15FFB6B085D8D1F27
:10563000A6F810111111813FD561C119A0012ABF2F
:105640007DFEB157E31DC73EEB9C2B8AE6E55ABEB3
:105650007CD5CF5A3AD9E53D7856000800000020A5
:105660005400000038470008CC56000854000020C1
:10567000AC080000484700080000000000000000DF
:10568000000000000000000000000000000000001A
:10569000000000000000000000000000000000000A
:1056A00000000000000000000000000000000000FA
:1056B00000000000010000001000000000000000D9
:0C56C00000127A00000000000000000052
:04000005080000ED02
:00000001FF
